{
  "_format": "hh-sol-artifact-1",
  "contractName": "TGNToken",
  "sourceName": "contracts/TGNToken.sol",
  "abi": [
    {
      "inputs": [],
      "stateMutability": "nonpayable",
      "type": "constructor"
    },
    {
      "anonymous": false,
      "inputs": [
        {
          "indexed": true,
          "internalType": "address",
          "name": "owner",
          "type": "address"
        },
        {
          "indexed": true,
          "internalType": "address",
          "name": "spender",
          "type": "address"
        },
        {
          "indexed": false,
          "internalType": "uint256",
          "name": "value",
          "type": "uint256"
        }
      ],
      "name": "Approval",
      "type": "event"
    },
    {
      "anonymous": false,
      "inputs": [
        {
          "indexed": true,
          "internalType": "address",
          "name": "delegator",
          "type": "address"
        },
        {
          "indexed": true,
          "internalType": "address",
          "name": "fromDelegate",
          "type": "address"
        },
        {
          "indexed": true,
          "internalType": "address",
          "name": "toDelegate",
          "type": "address"
        }
      ],
      "name": "DelegateChanged",
      "type": "event"
    },
    {
      "anonymous": false,
      "inputs": [
        {
          "indexed": true,
          "internalType": "address",
          "name": "delegate",
          "type": "address"
        },
        {
          "indexed": false,
          "internalType": "uint256",
          "name": "previousBalance",
          "type": "uint256"
        },
        {
          "indexed": false,
          "internalType": "uint256",
          "name": "newBalance",
          "type": "uint256"
        }
      ],
      "name": "DelegateVotesChanged",
      "type": "event"
    },
    {
      "anonymous": false,
      "inputs": [
        {
          "indexed": true,
          "internalType": "address",
          "name": "previousOwner",
          "type": "address"
        },
        {
          "indexed": true,
          "internalType": "address",
          "name": "newOwner",
          "type": "address"
        }
      ],
      "name": "OwnershipTransferred",
      "type": "event"
    },
    {
      "anonymous": false,
      "inputs": [
        {
          "indexed": true,
          "internalType": "address",
          "name": "from",
          "type": "address"
        },
        {
          "indexed": true,
          "internalType": "address",
          "name": "to",
          "type": "address"
        },
        {
          "indexed": false,
          "internalType": "uint256",
          "name": "value",
          "type": "uint256"
        }
      ],
      "name": "Transfer",
      "type": "event"
    },
    {
      "inputs": [],
      "name": "DOMAIN_SEPARATOR",
      "outputs": [
        {
          "internalType": "bytes32",
          "name": "",
          "type": "bytes32"
        }
      ],
      "stateMutability": "view",
      "type": "function"
    },
    {
      "inputs": [
        {
          "internalType": "address",
          "name": "owner",
          "type": "address"
        },
        {
          "internalType": "address",
          "name": "spender",
          "type": "address"
        }
      ],
      "name": "allowance",
      "outputs": [
        {
          "internalType": "uint256",
          "name": "",
          "type": "uint256"
        }
      ],
      "stateMutability": "view",
      "type": "function"
    },
    {
      "inputs": [
        {
          "internalType": "address",
          "name": "spender",
          "type": "address"
        },
        {
          "internalType": "uint256",
          "name": "amount",
          "type": "uint256"
        }
      ],
      "name": "approve",
      "outputs": [
        {
          "internalType": "bool",
          "name": "",
          "type": "bool"
        }
      ],
      "stateMutability": "nonpayable",
      "type": "function"
    },
    {
      "inputs": [
        {
          "internalType": "address",
          "name": "account",
          "type": "address"
        }
      ],
      "name": "balanceOf",
      "outputs": [
        {
          "internalType": "uint256",
          "name": "",
          "type": "uint256"
        }
      ],
      "stateMutability": "view",
      "type": "function"
    },
    {
      "inputs": [
        {
          "internalType": "address",
          "name": "account",
          "type": "address"
        },
        {
          "internalType": "uint32",
          "name": "pos",
          "type": "uint32"
        }
      ],
      "name": "checkpoints",
      "outputs": [
        {
          "components": [
            {
              "internalType": "uint32",
              "name": "fromBlock",
              "type": "uint32"
            },
            {
              "internalType": "uint224",
              "name": "votes",
              "type": "uint224"
            }
          ],
          "internalType": "struct ERC20Votes.Checkpoint",
          "name": "",
          "type": "tuple"
        }
      ],
      "stateMutability": "view",
      "type": "function"
    },
    {
      "inputs": [],
      "name": "decimals",
      "outputs": [
        {
          "internalType": "uint8",
          "name": "",
          "type": "uint8"
        }
      ],
      "stateMutability": "view",
      "type": "function"
    },
    {
      "inputs": [
        {
          "internalType": "address",
          "name": "spender",
          "type": "address"
        },
        {
          "internalType": "uint256",
          "name": "subtractedValue",
          "type": "uint256"
        }
      ],
      "name": "decreaseAllowance",
      "outputs": [
        {
          "internalType": "bool",
          "name": "",
          "type": "bool"
        }
      ],
      "stateMutability": "nonpayable",
      "type": "function"
    },
    {
      "inputs": [
        {
          "internalType": "address",
          "name": "delegatee",
          "type": "address"
        }
      ],
      "name": "delegate",
      "outputs": [],
      "stateMutability": "nonpayable",
      "type": "function"
    },
    {
      "inputs": [
        {
          "internalType": "address",
          "name": "delegatee",
          "type": "address"
        },
        {
          "internalType": "uint256",
          "name": "nonce",
          "type": "uint256"
        },
        {
          "internalType": "uint256",
          "name": "expiry",
          "type": "uint256"
        },
        {
          "internalType": "uint8",
          "name": "v",
          "type": "uint8"
        },
        {
          "internalType": "bytes32",
          "name": "r",
          "type": "bytes32"
        },
        {
          "internalType": "bytes32",
          "name": "s",
          "type": "bytes32"
        }
      ],
      "name": "delegateBySig",
      "outputs": [],
      "stateMutability": "nonpayable",
      "type": "function"
    },
    {
      "inputs": [
        {
          "internalType": "address",
          "name": "account",
          "type": "address"
        }
      ],
      "name": "delegates",
      "outputs": [
        {
          "internalType": "address",
          "name": "",
          "type": "address"
        }
      ],
      "stateMutability": "view",
      "type": "function"
    },
    {
      "inputs": [
        {
          "internalType": "uint256",
          "name": "blockNumber",
          "type": "uint256"
        }
      ],
      "name": "getPastTotalSupply",
      "outputs": [
        {
          "internalType": "uint256",
          "name": "",
          "type": "uint256"
        }
      ],
      "stateMutability": "view",
      "type": "function"
    },
    {
      "inputs": [
        {
          "internalType": "address",
          "name": "account",
          "type": "address"
        },
        {
          "internalType": "uint256",
          "name": "blockNumber",
          "type": "uint256"
        }
      ],
      "name": "getPastVotes",
      "outputs": [
        {
          "internalType": "uint256",
          "name": "",
          "type": "uint256"
        }
      ],
      "stateMutability": "view",
      "type": "function"
    },
    {
      "inputs": [
        {
          "internalType": "address",
          "name": "account",
          "type": "address"
        }
      ],
      "name": "getVotes",
      "outputs": [
        {
          "internalType": "uint256",
          "name": "",
          "type": "uint256"
        }
      ],
      "stateMutability": "view",
      "type": "function"
    },
    {
      "inputs": [
        {
          "internalType": "address",
          "name": "spender",
          "type": "address"
        },
        {
          "internalType": "uint256",
          "name": "addedValue",
          "type": "uint256"
        }
      ],
      "name": "increaseAllowance",
      "outputs": [
        {
          "internalType": "bool",
          "name": "",
          "type": "bool"
        }
      ],
      "stateMutability": "nonpayable",
      "type": "function"
    },
    {
      "inputs": [],
      "name": "maxSupply",
      "outputs": [
        {
          "internalType": "uint256",
          "name": "",
          "type": "uint256"
        }
      ],
      "stateMutability": "view",
      "type": "function"
    },
    {
      "inputs": [
        {
          "internalType": "address",
          "name": "to",
          "type": "address"
        },
        {
          "internalType": "uint256",
          "name": "amount",
          "type": "uint256"
        }
      ],
      "name": "mint",
      "outputs": [],
      "stateMutability": "nonpayable",
      "type": "function"
    },
    {
      "inputs": [],
      "name": "name",
      "outputs": [
        {
          "internalType": "string",
          "name": "",
          "type": "string"
        }
      ],
      "stateMutability": "view",
      "type": "function"
    },
    {
      "inputs": [
        {
          "internalType": "address",
          "name": "owner",
          "type": "address"
        }
      ],
      "name": "nonces",
      "outputs": [
        {
          "internalType": "uint256",
          "name": "",
          "type": "uint256"
        }
      ],
      "stateMutability": "view",
      "type": "function"
    },
    {
      "inputs": [
        {
          "internalType": "address",
          "name": "account",
          "type": "address"
        }
      ],
      "name": "numCheckpoints",
      "outputs": [
        {
          "internalType": "uint32",
          "name": "",
          "type": "uint32"
        }
      ],
      "stateMutability": "view",
      "type": "function"
    },
    {
      "inputs": [],
      "name": "owner",
      "outputs": [
        {
          "internalType": "address",
          "name": "",
          "type": "address"
        }
      ],
      "stateMutability": "view",
      "type": "function"
    },
    {
      "inputs": [
        {
          "internalType": "address",
          "name": "owner",
          "type": "address"
        },
        {
          "internalType": "address",
          "name": "spender",
          "type": "address"
        },
        {
          "internalType": "uint256",
          "name": "value",
          "type": "uint256"
        },
        {
          "internalType": "uint256",
          "name": "deadline",
          "type": "uint256"
        },
        {
          "internalType": "uint8",
          "name": "v",
          "type": "uint8"
        },
        {
          "internalType": "bytes32",
          "name": "r",
          "type": "bytes32"
        },
        {
          "internalType": "bytes32",
          "name": "s",
          "type": "bytes32"
        }
      ],
      "name": "permit",
      "outputs": [],
      "stateMutability": "nonpayable",
      "type": "function"
    },
    {
      "inputs": [],
      "name": "renounceOwnership",
      "outputs": [],
      "stateMutability": "nonpayable",
      "type": "function"
    },
    {
      "inputs": [],
      "name": "symbol",
      "outputs": [
        {
          "internalType": "string",
          "name": "",
          "type": "string"
        }
      ],
      "stateMutability": "view",
      "type": "function"
    },
    {
      "inputs": [],
      "name": "totalSupply",
      "outputs": [
        {
          "internalType": "uint256",
          "name": "",
          "type": "uint256"
        }
      ],
      "stateMutability": "view",
      "type": "function"
    },
    {
      "inputs": [
        {
          "internalType": "address",
          "name": "to",
          "type": "address"
        },
        {
          "internalType": "uint256",
          "name": "amount",
          "type": "uint256"
        }
      ],
      "name": "transfer",
      "outputs": [
        {
          "internalType": "bool",
          "name": "",
          "type": "bool"
        }
      ],
      "stateMutability": "nonpayable",
      "type": "function"
    },
    {
      "inputs": [
        {
          "internalType": "address",
          "name": "from",
          "type": "address"
        },
        {
          "internalType": "address",
          "name": "to",
          "type": "address"
        },
        {
          "internalType": "uint256",
          "name": "amount",
          "type": "uint256"
        }
      ],
      "name": "transferFrom",
      "outputs": [
        {
          "internalType": "bool",
          "name": "",
          "type": "bool"
        }
      ],
      "stateMutability": "nonpayable",
      "type": "function"
    },
    {
      "inputs": [
        {
          "internalType": "address",
          "name": "newOwner",
          "type": "address"
        }
      ],
      "name": "transferOwnership",
      "outputs": [],
      "stateMutability": "nonpayable",
      "type": "function"
    }
  ],
  "bytecode": "0x6101406040523480156200001257600080fd5b506040518060400160405280600881526020017f54474e546f6b656e000000000000000000000000000000000000000000000000815250806040518060400160405280600181526020017f31000000000000000000000000000000000000000000000000000000000000008152506040518060400160405280600881526020017f54474e546f6b656e0000000000000000000000000000000000000000000000008152506040518060400160405280600381526020017f54474e00000000000000000000000000000000000000000000000000000000008152508160039081620000fd919062000581565b5080600490816200010f919062000581565b5050506200013262000126620001fd60201b60201c565b6200020560201b60201c565b60008280519060200120905060008280519060200120905060007f8b73c3c69bb8fe3d512ecc4cf759cc79239f7b179b0ffacaa9a75d522b39400f90508260e081815250508161010081815250504660a081815250506200019b818484620002cb60201b60201c565b608081815250503073ffffffffffffffffffffffffffffffffffffffff1660c08173ffffffffffffffffffffffffffffffffffffffff16815250508061012081815250505050505050506af8277896582678ac000000600b8190555062000736565b600033905090565b6000600560009054906101000a900473ffffffffffffffffffffffffffffffffffffffff16905081600560006101000a81548173ffffffffffffffffffffffffffffffffffffffff021916908373ffffffffffffffffffffffffffffffffffffffff1602179055508173ffffffffffffffffffffffffffffffffffffffff168173ffffffffffffffffffffffffffffffffffffffff167f8be0079c531659141344cd1fd0a4f28419497f9722a3daafe3b4186f6b6457e060405160405180910390a35050565b60008383834630604051602001620002e8959493929190620006d9565b6040516020818303038152906040528051906020012090509392505050565b600081519050919050565b7f4e487b7100000000000000000000000000000000000000000000000000000000600052604160045260246000fd5b7f4e487b7100000000000000000000000000000000000000000000000000000000600052602260045260246000fd5b600060028204905060018216806200038957607f821691505b6020821081036200039f576200039e62000341565b5b50919050565b60008190508160005260206000209050919050565b60006020601f8301049050919050565b600082821b905092915050565b600060088302620004097fffffffffffffffffffffffffffffffffffffffffffffffffffffffffffffffff82620003ca565b620004158683620003ca565b95508019841693508086168417925050509392505050565b6000819050919050565b6000819050919050565b6000620004626200045c62000456846200042d565b62000437565b6200042d565b9050919050565b6000819050919050565b6200047e8362000441565b620004966200048d8262000469565b848454620003d7565b825550505050565b600090565b620004ad6200049e565b620004ba81848462000473565b505050565b5b81811015620004e257620004d6600082620004a3565b600181019050620004c0565b5050565b601f8211156200053157620004fb81620003a5565b6200050684620003ba565b8101602085101562000516578190505b6200052e6200052585620003ba565b830182620004bf565b50505b505050565b600082821c905092915050565b6000620005566000198460080262000536565b1980831691505092915050565b600062000571838362000543565b9150826002028217905092915050565b6200058c8262000307565b67ffffffffffffffff811115620005a857620005a762000312565b5b620005b4825462000370565b620005c1828285620004e6565b600060209050601f831160018114620005f95760008415620005e4578287015190505b620005f0858262000563565b86555062000660565b601f1984166200060986620003a5565b60005b8281101562000633578489015182556001820191506020850194506020810190506200060c565b868310156200065357848901516200064f601f89168262000543565b8355505b6001600288020188555050505b505050505050565b6000819050919050565b6200067d8162000668565b82525050565b6200068e816200042d565b82525050565b600073ffffffffffffffffffffffffffffffffffffffff82169050919050565b6000620006c18262000694565b9050919050565b620006d381620006b4565b82525050565b600060a082019050620006f0600083018862000672565b620006ff602083018762000672565b6200070e604083018662000672565b6200071d606083018562000683565b6200072c6080830184620006c8565b9695505050505050565b60805160a05160c05160e0516101005161012051613d3962000786600039600061161501526000611657015260006116360152600061156b015260006115c1015260006115ea0152613d396000f3fe608060405234801561001057600080fd5b50600436106101a95760003560e01c8063715018a6116100f9578063a9059cbb11610097578063d5abeb0111610071578063d5abeb011461051c578063dd62ed3e1461053a578063f1127ed81461056a578063f2fde38b1461059a576101a9565b8063a9059cbb146104b4578063c3cda520146104e4578063d505accf14610500576101a9565b80638e539e8c116100d35780638e539e8c1461040657806395d89b41146104365780639ab24eb014610454578063a457c2d714610484576101a9565b8063715018a6146103ae5780637ecebe00146103b85780638da5cb5b146103e8576101a9565b80633950935111610166578063587cde1e11610140578063587cde1e146103025780635c19a95c146103325780636fcfff451461034e57806370a082311461037e576101a9565b806339509351146102865780633a46b1a8146102b657806340c10f19146102e6576101a9565b806306fdde03146101ae578063095ea7b3146101cc57806318160ddd146101fc57806323b872dd1461021a578063313ce5671461024a5780633644e51514610268575b600080fd5b6101b66105b6565b6040516101c391906128b4565b60405180910390f35b6101e660048036038101906101e1919061296f565b610648565b6040516101f391906129ca565b60405180910390f35b61020461066b565b60405161021191906129f4565b60405180910390f35b610234600480360381019061022f9190612a0f565b610675565b60405161024191906129ca565b60405180910390f35b6102526106a4565b60405161025f9190612a7e565b60405180910390f35b6102706106ad565b60405161027d9190612ab2565b60405180910390f35b6102a0600480360381019061029b919061296f565b6106bc565b6040516102ad91906129ca565b60405180910390f35b6102d060048036038101906102cb919061296f565b6106f3565b6040516102dd91906129f4565b60405180910390f35b61030060048036038101906102fb919061296f565b610787565b005b61031c60048036038101906103179190612acd565b6107f4565b6040516103299190612b09565b60405180910390f35b61034c60048036038101906103479190612acd565b61085d565b005b61036860048036038101906103639190612acd565b610871565b6040516103759190612b43565b60405180910390f35b61039860048036038101906103939190612acd565b6108c5565b6040516103a591906129f4565b60405180910390f35b6103b661090d565b005b6103d260048036038101906103cd9190612acd565b610921565b6040516103df91906129f4565b60405180910390f35b6103f0610971565b6040516103fd9190612b09565b60405180910390f35b610420600480360381019061041b9190612b5e565b61099b565b60405161042d91906129f4565b60405180910390f35b61043e6109f1565b60405161044b91906128b4565b60405180910390f35b61046e60048036038101906104699190612acd565b610a83565b60405161047b91906129f4565b60405180910390f35b61049e6004803603810190610499919061296f565b610b94565b6040516104ab91906129ca565b60405180910390f35b6104ce60048036038101906104c9919061296f565b610c0b565b6040516104db91906129ca565b60405180910390f35b6104fe60048036038101906104f99190612be3565b610c2e565b005b61051a60048036038101906105159190612c70565b610d32565b005b610524610e74565b60405161053191906129f4565b60405180910390f35b610554600480360381019061054f9190612d12565b610e7a565b60405161056191906129f4565b60405180910390f35b610584600480360381019061057f9190612d7e565b610f01565b6040516105919190612e33565b60405180910390f35b6105b460048036038101906105af9190612acd565b611011565b005b6060600380546105c590612e7d565b80601f01602080910402602001604051908101604052809291908181526020018280546105f190612e7d565b801561063e5780601f106106135761010080835404028352916020019161063e565b820191906000526020600020905b81548152906001019060200180831161062157829003601f168201915b5050505050905090565b600080610653611094565b905061066081858561109c565b600191505092915050565b6000600254905090565b600080610680611094565b905061068d858285611265565b6106988585856112f1565b60019150509392505050565b60006012905090565b60006106b7611567565b905090565b6000806106c7611094565b90506106e88185856106d98589610e7a565b6106e39190612edd565b61109c565b600191505092915050565b6000438210610737576040517f08c379a000000000000000000000000000000000000000000000000000000000815260040161072e90612f5d565b60405180910390fd5b61077f600960008573ffffffffffffffffffffffffffffffffffffffff1673ffffffffffffffffffffffffffffffffffffffff16815260200190815260200160002083611681565b905092915050565b61078f6117d2565b600b548161079b61066b565b6107a59190612edd565b11156107e6576040517f08c379a00000000000000000000000000000000000000000000000000000000081526004016107dd90612fc9565b60405180910390fd5b6107f08282611850565b5050565b6000600860008373ffffffffffffffffffffffffffffffffffffffff1673ffffffffffffffffffffffffffffffffffffffff16815260200190815260200160002060009054906101000a900473ffffffffffffffffffffffffffffffffffffffff169050919050565b61086e610868611094565b8261185e565b50565b60006108be600960008473ffffffffffffffffffffffffffffffffffffffff1673ffffffffffffffffffffffffffffffffffffffff16815260200190815260200160002080549050611978565b9050919050565b60008060008373ffffffffffffffffffffffffffffffffffffffff1673ffffffffffffffffffffffffffffffffffffffff168152602001908152602001600020549050919050565b6109156117d2565b61091f60006119cb565b565b600061096a600660008473ffffffffffffffffffffffffffffffffffffffff1673ffffffffffffffffffffffffffffffffffffffff168152602001908152602001600020611a91565b9050919050565b6000600560009054906101000a900473ffffffffffffffffffffffffffffffffffffffff16905090565b60004382106109df576040517f08c379a00000000000000000000000000000000000000000000000000000000081526004016109d690612f5d565b60405180910390fd5b6109ea600a83611681565b9050919050565b606060048054610a0090612e7d565b80601f0160208091040260200160405190810160405280929190818152602001828054610a2c90612e7d565b8015610a795780601f10610a4e57610100808354040283529160200191610a79565b820191906000526020600020905b815481529060010190602001808311610a5c57829003601f168201915b5050505050905090565b600080600960008473ffffffffffffffffffffffffffffffffffffffff1673ffffffffffffffffffffffffffffffffffffffff16815260200190815260200160002080549050905060008114610b6b57600960008473ffffffffffffffffffffffffffffffffffffffff1673ffffffffffffffffffffffffffffffffffffffff168152602001908152602001600020600182610b1f9190612fe9565b81548110610b3057610b2f61301d565b5b9060005260206000200160000160049054906101000a90047bffffffffffffffffffffffffffffffffffffffffffffffffffffffff16610b6e565b60005b7bffffffffffffffffffffffffffffffffffffffffffffffffffffffff16915050919050565b600080610b9f611094565b90506000610bad8286610e7a565b905083811015610bf2576040517f08c379a0000000000000000000000000000000000000000000000000000000008152600401610be9906130be565b60405180910390fd5b610bff828686840361109c565b60019250505092915050565b600080610c16611094565b9050610c238185856112f1565b600191505092915050565b83421115610c71576040517f08c379a0000000000000000000000000000000000000000000000000000000008152600401610c689061312a565b60405180910390fd5b6000610cd3610ccb7fe48329057bfd03d55e49b547132e39cffd9c1820ad7b9d4c5307691425d15adf898989604051602001610cb0949392919061314a565b60405160208183030381529060405280519060200120611a9f565b858585611ab9565b9050610cde81611ae4565b8614610d1f576040517f08c379a0000000000000000000000000000000000000000000000000000000008152600401610d16906131db565b60405180910390fd5b610d29818861185e565b50505050505050565b83421115610d75576040517f08c379a0000000000000000000000000000000000000000000000000000000008152600401610d6c90613247565b60405180910390fd5b60007f6e71edae12b1b97f4d1f60370fef10105fa2faae0126114a169c64845d6126c9888888610da48c611ae4565b89604051602001610dba96959493929190613267565b6040516020818303038152906040528051906020012090506000610ddd82611a9f565b90506000610ded82878787611ab9565b90508973ffffffffffffffffffffffffffffffffffffffff168173ffffffffffffffffffffffffffffffffffffffff1614610e5d576040517f08c379a0000000000000000000000000000000000000000000000000000000008152600401610e5490613314565b60405180910390fd5b610e688a8a8a61109c565b50505050505050505050565b600b5481565b6000600160008473ffffffffffffffffffffffffffffffffffffffff1673ffffffffffffffffffffffffffffffffffffffff16815260200190815260200160002060008373ffffffffffffffffffffffffffffffffffffffff1673ffffffffffffffffffffffffffffffffffffffff16815260200190815260200160002054905092915050565b610f096127e6565b600960008473ffffffffffffffffffffffffffffffffffffffff1673ffffffffffffffffffffffffffffffffffffffff1681526020019081526020016000208263ffffffff1681548110610f6057610f5f61301d565b5b906000526020600020016040518060400160405290816000820160009054906101000a900463ffffffff1663ffffffff1663ffffffff1681526020016000820160049054906101000a90047bffffffffffffffffffffffffffffffffffffffffffffffffffffffff167bffffffffffffffffffffffffffffffffffffffffffffffffffffffff167bffffffffffffffffffffffffffffffffffffffffffffffffffffffff1681525050905092915050565b6110196117d2565b600073ffffffffffffffffffffffffffffffffffffffff168173ffffffffffffffffffffffffffffffffffffffff1603611088576040517f08c379a000000000000000000000000000000000000000000000000000000000815260040161107f906133a6565b60405180910390fd5b611091816119cb565b50565b600033905090565b600073ffffffffffffffffffffffffffffffffffffffff168373ffffffffffffffffffffffffffffffffffffffff160361110b576040517f08c379a000000000000000000000000000000000000000000000000000000000815260040161110290613438565b60405180910390fd5b600073ffffffffffffffffffffffffffffffffffffffff168273ffffffffffffffffffffffffffffffffffffffff160361117a576040517f08c379a0000000000000000000000000000000000000000000000000000000008152600401611171906134ca565b60405180910390fd5b80600160008573ffffffffffffffffffffffffffffffffffffffff1673ffffffffffffffffffffffffffffffffffffffff16815260200190815260200160002060008473ffffffffffffffffffffffffffffffffffffffff1673ffffffffffffffffffffffffffffffffffffffff168152602001908152602001600020819055508173ffffffffffffffffffffffffffffffffffffffff168373ffffffffffffffffffffffffffffffffffffffff167f8c5be1e5ebec7d5bd14f71427d1e84f3dd0314c0f7b2291e5b200ac8c7c3b9258360405161125891906129f4565b60405180910390a3505050565b60006112718484610e7a565b90507fffffffffffffffffffffffffffffffffffffffffffffffffffffffffffffffff81146112eb57818110156112dd576040517f08c379a00000000000000000000000000000000000000000000000000000000081526004016112d490613536565b60405180910390fd5b6112ea848484840361109c565b5b50505050565b600073ffffffffffffffffffffffffffffffffffffffff168373ffffffffffffffffffffffffffffffffffffffff1603611360576040517f08c379a0000000000000000000000000000000000000000000000000000000008152600401611357906135c8565b60405180910390fd5b600073ffffffffffffffffffffffffffffffffffffffff168273ffffffffffffffffffffffffffffffffffffffff16036113cf576040517f08c379a00000000000000000000000000000000000000000000000000000000081526004016113c69061365a565b60405180910390fd5b6113da838383611b42565b60008060008573ffffffffffffffffffffffffffffffffffffffff1673ffffffffffffffffffffffffffffffffffffffff16815260200190815260200160002054905081811015611460576040517f08c379a0000000000000000000000000000000000000000000000000000000008152600401611457906136ec565b60405180910390fd5b8181036000808673ffffffffffffffffffffffffffffffffffffffff1673ffffffffffffffffffffffffffffffffffffffff16815260200190815260200160002081905550816000808573ffffffffffffffffffffffffffffffffffffffff1673ffffffffffffffffffffffffffffffffffffffff168152602001908152602001600020600082825401925050819055508273ffffffffffffffffffffffffffffffffffffffff168473ffffffffffffffffffffffffffffffffffffffff167fddf252ad1be2c89b69c2b068fc378daa952ba7f163c4a11628f55a4df523b3ef8460405161154e91906129f4565b60405180910390a3611561848484611b47565b50505050565b60007f000000000000000000000000000000000000000000000000000000000000000073ffffffffffffffffffffffffffffffffffffffff163073ffffffffffffffffffffffffffffffffffffffff161480156115e357507f000000000000000000000000000000000000000000000000000000000000000046145b15611610577f0000000000000000000000000000000000000000000000000000000000000000905061167e565b61167b7f00000000000000000000000000000000000000000000000000000000000000007f00000000000000000000000000000000000000000000000000000000000000007f0000000000000000000000000000000000000000000000000000000000000000611b57565b90505b90565b6000808380549050905060008082905060058311156116f75760006116a584611b91565b846116b09190612fe9565b9050856116bd8883611c8a565b60000160009054906101000a900463ffffffff1663ffffffff1611156116e5578091506116f5565b6001816116f29190612edd565b92505b505b5b8082101561175757600061170c8383611c9f565b9050856117198883611c8a565b60000160009054906101000a900463ffffffff1663ffffffff16111561174157809150611751565b60018161174e9190612edd565b92505b506116f8565b600081146117a657611775866001836117709190612fe9565b611c8a565b60000160049054906101000a90047bffffffffffffffffffffffffffffffffffffffffffffffffffffffff166117a9565b60005b7bffffffffffffffffffffffffffffffffffffffffffffffffffffffff16935050505092915050565b6117da611094565b73ffffffffffffffffffffffffffffffffffffffff166117f8610971565b73ffffffffffffffffffffffffffffffffffffffff161461184e576040517f08c379a000000000000000000000000000000000000000000000000000000000815260040161184590613758565b60405180910390fd5b565b61185a8282611cc5565b5050565b6000611869836107f4565b90506000611876846108c5565b905082600860008673ffffffffffffffffffffffffffffffffffffffff1673ffffffffffffffffffffffffffffffffffffffff16815260200190815260200160002060006101000a81548173ffffffffffffffffffffffffffffffffffffffff021916908373ffffffffffffffffffffffffffffffffffffffff1602179055508273ffffffffffffffffffffffffffffffffffffffff168273ffffffffffffffffffffffffffffffffffffffff168573ffffffffffffffffffffffffffffffffffffffff167f3134e8a2e6d97e929a7e54011ea5485d7d196dd5f0ba4d4ef95803e8e3fc257f60405160405180910390a4611972828483611d52565b50505050565b600063ffffffff80168211156119c3576040517f08c379a00000000000000000000000000000000000000000000000000000000081526004016119ba906137ea565b60405180910390fd5b819050919050565b6000600560009054906101000a900473ffffffffffffffffffffffffffffffffffffffff16905081600560006101000a81548173ffffffffffffffffffffffffffffffffffffffff021916908373ffffffffffffffffffffffffffffffffffffffff1602179055508173ffffffffffffffffffffffffffffffffffffffff168173ffffffffffffffffffffffffffffffffffffffff167f8be0079c531659141344cd1fd0a4f28419497f9722a3daafe3b4186f6b6457e060405160405180910390a35050565b600081600001549050919050565b6000611ab2611aac611567565b83611f4b565b9050919050565b6000806000611aca87878787611f7e565b91509150611ad781612060565b8192505050949350505050565b600080600660008473ffffffffffffffffffffffffffffffffffffffff1673ffffffffffffffffffffffffffffffffffffffff1681526020019081526020016000209050611b3181611a91565b9150611b3c816121c6565b50919050565b505050565b611b528383836121dc565b505050565b60008383834630604051602001611b7295949392919061380a565b6040516020818303038152906040528051906020012090509392505050565b6000808203611ba35760009050611c85565b60006001611bb084612207565b901c6001901b90506001818481611bca57611bc961385d565b5b048201901c90506001818481611be357611be261385d565b5b048201901c90506001818481611bfc57611bfb61385d565b5b048201901c90506001818481611c1557611c1461385d565b5b048201901c90506001818481611c2e57611c2d61385d565b5b048201901c90506001818481611c4757611c4661385d565b5b048201901c90506001818481611c6057611c5f61385d565b5b048201901c9050611c8181828581611c7b57611c7a61385d565b5b046122e8565b9150505b919050565b60008260005281602060002001905092915050565b60006002828418611cb0919061388c565b828416611cbd9190612edd565b905092915050565b611ccf8282612301565b611cd7612457565b7bffffffffffffffffffffffffffffffffffffffffffffffffffffffff16611cfd61066b565b1115611d3e576040517f08c379a0000000000000000000000000000000000000000000000000000000008152600401611d359061392f565b60405180910390fd5b611d4c600a61247b83612491565b50505050565b8173ffffffffffffffffffffffffffffffffffffffff168373ffffffffffffffffffffffffffffffffffffffff1614158015611d8e5750600081115b15611f4657600073ffffffffffffffffffffffffffffffffffffffff168373ffffffffffffffffffffffffffffffffffffffff1614611e6c57600080611e15600960008773ffffffffffffffffffffffffffffffffffffffff1673ffffffffffffffffffffffffffffffffffffffff16815260200190815260200160002061276085612491565b915091508473ffffffffffffffffffffffffffffffffffffffff167fdec2bacdd2f05b59de34da9b523dff8be42e5e38e818c82fdb0bae774387a7248383604051611e6192919061394f565b60405180910390a250505b600073ffffffffffffffffffffffffffffffffffffffff168273ffffffffffffffffffffffffffffffffffffffff1614611f4557600080611eee600960008673ffffffffffffffffffffffffffffffffffffffff1673ffffffffffffffffffffffffffffffffffffffff16815260200190815260200160002061247b85612491565b915091508373ffffffffffffffffffffffffffffffffffffffff167fdec2bacdd2f05b59de34da9b523dff8be42e5e38e818c82fdb0bae774387a7248383604051611f3a92919061394f565b60405180910390a250505b5b505050565b60008282604051602001611f609291906139f0565b60405160208183030381529060405280519060200120905092915050565b6000807f7fffffffffffffffffffffffffffffff5d576e7357a4501ddfe92f46681b20a08360001c1115611fb9576000600391509150612057565b600060018787878760405160008152602001604052604051611fde9493929190613a27565b6020604051602081039080840390855afa158015612000573d6000803e3d6000fd5b505050602060405103519050600073ffffffffffffffffffffffffffffffffffffffff168173ffffffffffffffffffffffffffffffffffffffff160361204e57600060019250925050612057565b80600092509250505b94509492505050565b6000600481111561207457612073613a6c565b5b81600481111561208757612086613a6c565b5b03156121c357600160048111156120a1576120a0613a6c565b5b8160048111156120b4576120b3613a6c565b5b036120f4576040517f08c379a00000000000000000000000000000000000000000000000000000000081526004016120eb90613ae7565b60405180910390fd5b6002600481111561210857612107613a6c565b5b81600481111561211b5761211a613a6c565b5b0361215b576040517f08c379a000000000000000000000000000000000000000000000000000000000815260040161215290613b53565b60405180910390fd5b6003600481111561216f5761216e613a6c565b5b81600481111561218257612181613a6c565b5b036121c2576040517f08c379a00000000000000000000000000000000000000000000000000000000081526004016121b990613be5565b60405180910390fd5b5b50565b6001816000016000828254019250508190555050565b6121e7838383612776565b6122026121f3846107f4565b6121fc846107f4565b83611d52565b505050565b600080600090506000608084901c111561222957608083901c92506080810190505b6000604084901c111561224457604083901c92506040810190505b6000602084901c111561225f57602083901c92506020810190505b6000601084901c111561227a57601083901c92506010810190505b6000600884901c111561229557600883901c92506008810190505b6000600484901c11156122b057600483901c92506004810190505b6000600284901c11156122cb57600283901c92506002810190505b6000600184901c11156122df576001810190505b80915050919050565b60008183106122f757816122f9565b825b905092915050565b600073ffffffffffffffffffffffffffffffffffffffff168273ffffffffffffffffffffffffffffffffffffffff1603612370576040517f08c379a000000000000000000000000000000000000000000000000000000000815260040161236790613c51565b60405180910390fd5b61237c60008383611b42565b806002600082825461238e9190612edd565b92505081905550806000808473ffffffffffffffffffffffffffffffffffffffff1673ffffffffffffffffffffffffffffffffffffffff168152602001908152602001600020600082825401925050819055508173ffffffffffffffffffffffffffffffffffffffff16600073ffffffffffffffffffffffffffffffffffffffff167fddf252ad1be2c89b69c2b068fc378daa952ba7f163c4a11628f55a4df523b3ef8360405161243f91906129f4565b60405180910390a361245360008383611b47565b5050565b60007bffffffffffffffffffffffffffffffffffffffffffffffffffffffff905090565b600081836124899190612edd565b905092915050565b6000806000858054905090506000808214612560576124bc876001846124b79190612fe9565b611c8a565b6040518060400160405290816000820160009054906101000a900463ffffffff1663ffffffff1663ffffffff1681526020016000820160049054906101000a90047bffffffffffffffffffffffffffffffffffffffffffffffffffffffff167bffffffffffffffffffffffffffffffffffffffffffffffffffffffff167bffffffffffffffffffffffffffffffffffffffffffffffffffffffff168152505061259c565b6040518060400160405280600063ffffffff16815260200160007bffffffffffffffffffffffffffffffffffffffffffffffffffffffff168152505b905080602001517bffffffffffffffffffffffffffffffffffffffffffffffffffffffff1693506125d184868863ffffffff16565b92506000821180156125ec575043816000015163ffffffff16145b15612666576125fa8361277b565b6126108860018561260b9190612fe9565b611c8a565b60000160046101000a8154817bffffffffffffffffffffffffffffffffffffffffffffffffffffffff02191690837bffffffffffffffffffffffffffffffffffffffffffffffffffffffff160217905550612756565b86604051806040016040528061267b43611978565b63ffffffff16815260200161268f8661277b565b7bffffffffffffffffffffffffffffffffffffffffffffffffffffffff168152509080600181540180825580915050600190039060005260206000200160009091909190915060008201518160000160006101000a81548163ffffffff021916908363ffffffff16021790555060208201518160000160046101000a8154817bffffffffffffffffffffffffffffffffffffffffffffffffffffffff02191690837bffffffffffffffffffffffffffffffffffffffffffffffffffffffff16021790555050505b5050935093915050565b6000818361276e9190612fe9565b905092915050565b505050565b60007bffffffffffffffffffffffffffffffffffffffffffffffffffffffff80168211156127de576040517f08c379a00000000000000000000000000000000000000000000000000000000081526004016127d590613ce3565b60405180910390fd5b819050919050565b6040518060400160405280600063ffffffff16815260200160007bffffffffffffffffffffffffffffffffffffffffffffffffffffffff1681525090565b600081519050919050565b600082825260208201905092915050565b60005b8381101561285e578082015181840152602081019050612843565b60008484015250505050565b6000601f19601f8301169050919050565b600061288682612824565b612890818561282f565b93506128a0818560208601612840565b6128a98161286a565b840191505092915050565b600060208201905081810360008301526128ce818461287b565b905092915050565b600080fd5b600073ffffffffffffffffffffffffffffffffffffffff82169050919050565b6000612906826128db565b9050919050565b612916816128fb565b811461292157600080fd5b50565b6000813590506129338161290d565b92915050565b6000819050919050565b61294c81612939565b811461295757600080fd5b50565b60008135905061296981612943565b92915050565b60008060408385031215612986576129856128d6565b5b600061299485828601612924565b92505060206129a58582860161295a565b9150509250929050565b60008115159050919050565b6129c4816129af565b82525050565b60006020820190506129df60008301846129bb565b92915050565b6129ee81612939565b82525050565b6000602082019050612a0960008301846129e5565b92915050565b600080600060608486031215612a2857612a276128d6565b5b6000612a3686828701612924565b9350506020612a4786828701612924565b9250506040612a588682870161295a565b9150509250925092565b600060ff82169050919050565b612a7881612a62565b82525050565b6000602082019050612a936000830184612a6f565b92915050565b6000819050919050565b612aac81612a99565b82525050565b6000602082019050612ac76000830184612aa3565b92915050565b600060208284031215612ae357612ae26128d6565b5b6000612af184828501612924565b91505092915050565b612b03816128fb565b82525050565b6000602082019050612b1e6000830184612afa565b92915050565b600063ffffffff82169050919050565b612b3d81612b24565b82525050565b6000602082019050612b586000830184612b34565b92915050565b600060208284031215612b7457612b736128d6565b5b6000612b828482850161295a565b91505092915050565b612b9481612a62565b8114612b9f57600080fd5b50565b600081359050612bb181612b8b565b92915050565b612bc081612a99565b8114612bcb57600080fd5b50565b600081359050612bdd81612bb7565b92915050565b60008060008060008060c08789031215612c0057612bff6128d6565b5b6000612c0e89828a01612924565b9650506020612c1f89828a0161295a565b9550506040612c3089828a0161295a565b9450506060612c4189828a01612ba2565b9350506080612c5289828a01612bce565b92505060a0612c6389828a01612bce565b9150509295509295509295565b600080600080600080600060e0888a031215612c8f57612c8e6128d6565b5b6000612c9d8a828b01612924565b9750506020612cae8a828b01612924565b9650506040612cbf8a828b0161295a565b9550506060612cd08a828b0161295a565b9450506080612ce18a828b01612ba2565b93505060a0612cf28a828b01612bce565b92505060c0612d038a828b01612bce565b91505092959891949750929550565b60008060408385031215612d2957612d286128d6565b5b6000612d3785828601612924565b9250506020612d4885828601612924565b9150509250929050565b612d5b81612b24565b8114612d6657600080fd5b50565b600081359050612d7881612d52565b92915050565b60008060408385031215612d9557612d946128d6565b5b6000612da385828601612924565b9250506020612db485828601612d69565b9150509250929050565b612dc781612b24565b82525050565b60007bffffffffffffffffffffffffffffffffffffffffffffffffffffffff82169050919050565b612dfe81612dcd565b82525050565b604082016000820151612e1a6000850182612dbe565b506020820151612e2d6020850182612df5565b50505050565b6000604082019050612e486000830184612e04565b92915050565b7f4e487b7100000000000000000000000000000000000000000000000000000000600052602260045260246000fd5b60006002820490506001821680612e9557607f821691505b602082108103612ea857612ea7612e4e565b5b50919050565b7f4e487b7100000000000000000000000000000000000000000000000000000000600052601160045260246000fd5b6000612ee882612939565b9150612ef383612939565b9250828201905080821115612f0b57612f0a612eae565b5b92915050565b7f4552433230566f7465733a20626c6f636b206e6f7420796574206d696e656400600082015250565b6000612f47601f8361282f565b9150612f5282612f11565b602082019050919050565b60006020820190508181036000830152612f7681612f3a565b9050919050565b7f45786365656473206d617820737570706c790000000000000000000000000000600082015250565b6000612fb360128361282f565b9150612fbe82612f7d565b602082019050919050565b60006020820190508181036000830152612fe281612fa6565b9050919050565b6000612ff482612939565b9150612fff83612939565b925082820390508181111561301757613016612eae565b5b92915050565b7f4e487b7100000000000000000000000000000000000000000000000000000000600052603260045260246000fd5b7f45524332303a2064656372656173656420616c6c6f77616e63652062656c6f7760008201527f207a65726f000000000000000000000000000000000000000000000000000000602082015250565b60006130a860258361282f565b91506130b38261304c565b604082019050919050565b600060208201905081810360008301526130d78161309b565b9050919050565b7f4552433230566f7465733a207369676e61747572652065787069726564000000600082015250565b6000613114601d8361282f565b915061311f826130de565b602082019050919050565b6000602082019050818103600083015261314381613107565b9050919050565b600060808201905061315f6000830187612aa3565b61316c6020830186612afa565b61317960408301856129e5565b61318660608301846129e5565b95945050505050565b7f4552433230566f7465733a20696e76616c6964206e6f6e636500000000000000600082015250565b60006131c560198361282f565b91506131d08261318f565b602082019050919050565b600060208201905081810360008301526131f4816131b8565b9050919050565b7f45524332305065726d69743a206578706972656420646561646c696e65000000600082015250565b6000613231601d8361282f565b915061323c826131fb565b602082019050919050565b6000602082019050818103600083015261326081613224565b9050919050565b600060c08201905061327c6000830189612aa3565b6132896020830188612afa565b6132966040830187612afa565b6132a360608301866129e5565b6132b060808301856129e5565b6132bd60a08301846129e5565b979650505050505050565b7f45524332305065726d69743a20696e76616c6964207369676e61747572650000600082015250565b60006132fe601e8361282f565b9150613309826132c8565b602082019050919050565b6000602082019050818103600083015261332d816132f1565b9050919050565b7f4f776e61626c653a206e6577206f776e657220697320746865207a65726f206160008201527f6464726573730000000000000000000000000000000000000000000000000000602082015250565b600061339060268361282f565b915061339b82613334565b604082019050919050565b600060208201905081810360008301526133bf81613383565b9050919050565b7f45524332303a20617070726f76652066726f6d20746865207a65726f2061646460008201527f7265737300000000000000000000000000000000000000000000000000000000602082015250565b600061342260248361282f565b915061342d826133c6565b604082019050919050565b6000602082019050818103600083015261345181613415565b9050919050565b7f45524332303a20617070726f766520746f20746865207a65726f20616464726560008201527f7373000000000000000000000000000000000000000000000000000000000000602082015250565b60006134b460228361282f565b91506134bf82613458565b604082019050919050565b600060208201905081810360008301526134e3816134a7565b9050919050565b7f45524332303a20696e73756666696369656e7420616c6c6f77616e6365000000600082015250565b6000613520601d8361282f565b915061352b826134ea565b602082019050919050565b6000602082019050818103600083015261354f81613513565b9050919050565b7f45524332303a207472616e736665722066726f6d20746865207a65726f20616460008201527f6472657373000000000000000000000000000000000000000000000000000000602082015250565b60006135b260258361282f565b91506135bd82613556565b604082019050919050565b600060208201905081810360008301526135e1816135a5565b9050919050565b7f45524332303a207472616e7366657220746f20746865207a65726f206164647260008201527f6573730000000000000000000000000000000000000000000000000000000000602082015250565b600061364460238361282f565b915061364f826135e8565b604082019050919050565b6000602082019050818103600083015261367381613637565b9050919050565b7f45524332303a207472616e7366657220616d6f756e742065786365656473206260008201527f616c616e63650000000000000000000000000000000000000000000000000000602082015250565b60006136d660268361282f565b91506136e18261367a565b604082019050919050565b60006020820190508181036000830152613705816136c9565b9050919050565b7f4f776e61626c653a2063616c6c6572206973206e6f7420746865206f776e6572600082015250565b600061374260208361282f565b915061374d8261370c565b602082019050919050565b6000602082019050818103600083015261377181613735565b9050919050565b7f53616665436173743a2076616c756520646f65736e27742066697420696e203360008201527f3220626974730000000000000000000000000000000000000000000000000000602082015250565b60006137d460268361282f565b91506137df82613778565b604082019050919050565b60006020820190508181036000830152613803816137c7565b9050919050565b600060a08201905061381f6000830188612aa3565b61382c6020830187612aa3565b6138396040830186612aa3565b61384660608301856129e5565b6138536080830184612afa565b9695505050505050565b7f4e487b7100000000000000000000000000000000000000000000000000000000600052601260045260246000fd5b600061389782612939565b91506138a283612939565b9250826138b2576138b161385d565b5b828204905092915050565b7f4552433230566f7465733a20746f74616c20737570706c79207269736b73206f60008201527f766572666c6f77696e6720766f74657300000000000000000000000000000000602082015250565b600061391960308361282f565b9150613924826138bd565b604082019050919050565b600060208201905081810360008301526139488161390c565b9050919050565b600060408201905061396460008301856129e5565b61397160208301846129e5565b9392505050565b600081905092915050565b7f1901000000000000000000000000000000000000000000000000000000000000600082015250565b60006139b9600283613978565b91506139c482613983565b600282019050919050565b6000819050919050565b6139ea6139e582612a99565b6139cf565b82525050565b60006139fb826139ac565b9150613a0782856139d9565b602082019150613a1782846139d9565b6020820191508190509392505050565b6000608082019050613a3c6000830187612aa3565b613a496020830186612a6f565b613a566040830185612aa3565b613a636060830184612aa3565b95945050505050565b7f4e487b7100000000000000000000000000000000000000000000000000000000600052602160045260246000fd5b7f45434453413a20696e76616c6964207369676e61747572650000000000000000600082015250565b6000613ad160188361282f565b9150613adc82613a9b565b602082019050919050565b60006020820190508181036000830152613b0081613ac4565b9050919050565b7f45434453413a20696e76616c6964207369676e6174757265206c656e67746800600082015250565b6000613b3d601f8361282f565b9150613b4882613b07565b602082019050919050565b60006020820190508181036000830152613b6c81613b30565b9050919050565b7f45434453413a20696e76616c6964207369676e6174757265202773272076616c60008201527f7565000000000000000000000000000000000000000000000000000000000000602082015250565b6000613bcf60228361282f565b9150613bda82613b73565b604082019050919050565b60006020820190508181036000830152613bfe81613bc2565b9050919050565b7f45524332303a206d696e7420746f20746865207a65726f206164647265737300600082015250565b6000613c3b601f8361282f565b9150613c4682613c05565b602082019050919050565b60006020820190508181036000830152613c6a81613c2e565b9050919050565b7f53616665436173743a2076616c756520646f65736e27742066697420696e203260008201527f3234206269747300000000000000000000000000000000000000000000000000602082015250565b6000613ccd60278361282f565b9150613cd882613c71565b604082019050919050565b60006020820190508181036000830152613cfc81613cc0565b905091905056fea2646970667358221220b5868aa047dd64ed7324e5ead0b72d9a4d4f2866ac012705051cbc5f865047b164736f6c63430008110033",
  "linkReferences": {},
  "deployedLinkReferences": {}
}