{
  "_format": "hh-sol-artifact-1",
  "contractName": "ManagementFacet",
  "sourceName": "contracts/facets/ManagementFacet.sol",
  "abi": [
    {
      "inputs": [
        {
          "internalType": "string",
          "name": "_URI",
          "type": "string"
        }
      ],
      "name": "addBaseURI",
      "outputs": [],
      "stateMutability": "nonpayable",
      "type": "function"
    },
    {
      "inputs": [
        {
          "internalType": "uint256",
          "name": "_tokens",
          "type": "uint256"
        }
      ],
      "name": "burnTokens",
      "outputs": [],
      "stateMutability": "nonpayable",
      "type": "function"
    },
    {
      "inputs": [
        {
          "internalType": "address",
          "name": "_address",
          "type": "address"
        }
      ],
      "name": "checkStats",
      "outputs": [
        {
          "internalType": "uint256",
          "name": "_minted",
          "type": "uint256"
        },
        {
          "internalType": "uint256",
          "name": "_burnt",
          "type": "uint256"
        }
      ],
      "stateMutability": "view",
      "type": "function"
    },
    {
      "inputs": [
        {
          "internalType": "address",
          "name": "_user",
          "type": "address"
        }
      ],
      "name": "checkUserNFTs",
      "outputs": [
        {
          "internalType": "uint256",
          "name": "",
          "type": "uint256"
        }
      ],
      "stateMutability": "view",
      "type": "function"
    },
    {
      "inputs": [],
      "name": "checklength",
      "outputs": [
        {
          "internalType": "uint256",
          "name": "",
          "type": "uint256"
        }
      ],
      "stateMutability": "view",
      "type": "function"
    },
    {
      "inputs": [
        {
          "internalType": "address",
          "name": "_minter",
          "type": "address"
        },
        {
          "internalType": "address",
          "name": "_token",
          "type": "address"
        }
      ],
      "name": "initialize",
      "outputs": [],
      "stateMutability": "nonpayable",
      "type": "function"
    },
    {
      "inputs": [],
      "name": "mintNFTs",
      "outputs": [],
      "stateMutability": "nonpayable",
      "type": "function"
    },
    {
      "inputs": [
        {
          "internalType": "address",
          "name": "_receiver",
          "type": "address"
        },
        {
          "internalType": "uint256",
          "name": "_tokens",
          "type": "uint256"
        }
      ],
      "name": "mintTokens",
      "outputs": [],
      "stateMutability": "nonpayable",
      "type": "function"
    },
    {
      "inputs": [
        {
          "internalType": "address",
          "name": "_address",
          "type": "address"
        }
      ],
      "name": "updateNFTs",
      "outputs": [],
      "stateMutability": "nonpayable",
      "type": "function"
    }
  ],
  "bytecode": "0x608060405234801561001057600080fd5b50611a9e806100206000396000f3fe608060405234801561001057600080fd5b50600436106100935760003560e01c80634af57f9d116100665780634af57f9d1461010a5780636d1b229d146101145780637a723ac114610130578063daeb3dba14610160578063f0dda65c1461019157610093565b80630fd7e8a91461009857806327cfa7d2146100b6578063485cc955146100d25780634ade20f4146100ee575b600080fd5b6100a06101ad565b6040516100ad919061101d565b60405180910390f35b6100d060048036038101906100cb9190611192565b6101c8565b005b6100ec60048036038101906100e79190611239565b610259565b005b61010860048036038101906101039190611279565b61039d565b005b610112610698565b005b61012e600480360381019061012991906112d2565b6108f8565b005b61014a60048036038101906101459190611279565b6109ed565b604051610157919061101d565b60405180910390f35b61017a60048036038101906101759190611279565b610a47565b6040516101889291906112ff565b60405180910390f35b6101ab60048036038101906101a69190611328565b610ae4565b005b6000806101b8610bda565b9050806006018054905091505090565b60006101d2610bda565b9050600381600601805490501061021e576040517f08c379a0000000000000000000000000000000000000000000000000000000008152600401610215906113c5565b60405180910390fd5b806006018290806001815401808255809150506001900390600052602060002001600090919091909150908161025491906115fc565b505050565b600073ffffffffffffffffffffffffffffffffffffffff168273ffffffffffffffffffffffffffffffffffffffff161415806102c25750600073ffffffffffffffffffffffffffffffffffffffff168173ffffffffffffffffffffffffffffffffffffffff1614155b610301576040517f08c379a00000000000000000000000000000000000000000000000000000000081526004016102f89061171a565b60405180910390fd5b600061030b610bda565b9050816000806101000a81548173ffffffffffffffffffffffffffffffffffffffff021916908373ffffffffffffffffffffffffffffffffffffffff16021790555082600160006101000a81548173ffffffffffffffffffffffffffffffffffffffff021916908373ffffffffffffffffffffffffffffffffffffffff160217905550600081600a0181905550505050565b60006103a7610bda565b905060008160090160008473ffffffffffffffffffffffffffffffffffffffff1673ffffffffffffffffffffffffffffffffffffffff16815260200190815260200160002080548060200260200160405190810160405280929190818152602001828054801561043657602002820191906000526020600020905b815481526020019060010190808311610422575b5050505050905060008061044985610a47565b915091506000818303610511578460060160008154811061046d5761046c61173a565b5b90600052602060002001905061050c848280546104899061141f565b80601f01602080910402602001604051908101604052809291908181526020018280546104b59061141f565b80156105025780601f106104d757610100808354040283529160200191610502565b820191906000526020600020905b8154815290600101906020018083116104e557829003601f168201915b5050505050610c07565b610690565b818311156105d657846006016001815481106105305761052f61173a565b5b9060005260206000200190506105d181805461054b9061141f565b80601f01602080910402602001604051908101604052809291908181526020018280546105779061141f565b80156105c45780601f10610599576101008083540402835291602001916105c4565b820191906000526020600020905b8154815290600101906020018083116105a757829003601f168201915b5050505050848487610ce0565b61068f565b846006016002815481106105ed576105ec61173a565b5b90600052602060002001905061068e8180546106089061141f565b80601f01602080910402602001604051908101604052809291908181526020018280546106349061141f565b80156106815780601f1061065657610100808354040283529160200191610681565b820191906000526020600020905b81548152906001019060200180831161066457829003601f168201915b5050505050838587610ce0565b5b5b505050505050565b60006106a2610bda565b9050600081600a01600081546106b790611798565b91905081905590506000826006016000815481106106d8576106d761173a565b5b9060005260206000200180546106ed9061141f565b80601f01602080910402602001604051908101604052809291908181526020018280546107199061141f565b80156107665780601f1061073b57610100808354040283529160200191610766565b820191906000526020600020905b81548152906001019060200180831161074957829003601f168201915b50505050509050600160009054906101000a900473ffffffffffffffffffffffffffffffffffffffff1673ffffffffffffffffffffffffffffffffffffffff1663a144819433846040518363ffffffff1660e01b81526004016107ca9291906117ef565b600060405180830381600087803b1580156107e457600080fd5b505af11580156107f8573d6000803e3d6000fd5b50505050600160009054906101000a900473ffffffffffffffffffffffffffffffffffffffff1673ffffffffffffffffffffffffffffffffffffffff166331d41c6983836040518363ffffffff1660e01b815260040161085992919061187b565b600060405180830381600087803b15801561087357600080fd5b505af1158015610887573d6000803e3d6000fd5b505050508260090160003373ffffffffffffffffffffffffffffffffffffffff1673ffffffffffffffffffffffffffffffffffffffff168152602001908152602001600020829080600181540180825580915050600190039060005260206000200160009091909190915055505050565b6000610902610bda565b905060008054906101000a900473ffffffffffffffffffffffffffffffffffffffff1673ffffffffffffffffffffffffffffffffffffffff16630d1118ce33846040518363ffffffff1660e01b815260040161095f9291906117ef565b600060405180830381600087803b15801561097957600080fd5b505af115801561098d573d6000803e3d6000fd5b50505050818160080160003373ffffffffffffffffffffffffffffffffffffffff1673ffffffffffffffffffffffffffffffffffffffff16815260200190815260200160002060008282546109e291906118ab565b925050819055505050565b6000806109f8610bda565b90508060090160008473ffffffffffffffffffffffffffffffffffffffff1673ffffffffffffffffffffffffffffffffffffffff16815260200190815260200160002080549050915050919050565b6000806000610a54610bda565b90508060070160008573ffffffffffffffffffffffffffffffffffffffff1673ffffffffffffffffffffffffffffffffffffffff1681526020019081526020016000205492508060080160008573ffffffffffffffffffffffffffffffffffffffff1673ffffffffffffffffffffffffffffffffffffffff16815260200190815260200160002054915050915091565b6000610aee610bda565b905060008054906101000a900473ffffffffffffffffffffffffffffffffffffffff1673ffffffffffffffffffffffffffffffffffffffff1663f0dda65c84846040518363ffffffff1660e01b8152600401610b4b9291906117ef565b600060405180830381600087803b158015610b6557600080fd5b505af1158015610b79573d6000803e3d6000fd5b50505050818160070160008573ffffffffffffffffffffffffffffffffffffffff1673ffffffffffffffffffffffffffffffffffffffff1681526020019081526020016000206000828254610bce91906118ab565b92505081905550505050565b6000807fc8fcad8db84d3cc18b4c41d551ea0ee66dd599cde068d998e57d5e09332c131c90508091505090565b60008251905060005b81811015610cda576000848281518110610c2d57610c2c61173a565b5b60200260200101519050600160009054906101000a900473ffffffffffffffffffffffffffffffffffffffff1673ffffffffffffffffffffffffffffffffffffffff166331d41c6982866040518363ffffffff1660e01b8152600401610c9492919061187b565b600060405180830381600087803b158015610cae57600080fd5b505af1158015610cc2573d6000803e3d6000fd5b50505050508080610cd290611798565b915050610c10565b50505050565b6000610ceb84610d78565b905060008385610cfb919061190e565b90506000848287610d0c919061193f565b610d169190611973565b90506005811115610d2657600590505b6000610d3182610de3565b905060608882610d4087610de3565b604051602001610d5293929190611a2c565b6040516020818303038152906040529050610d6d8682610c07565b505050505050505050565b600080670de0b6b3a764000083610d8f9190611973565b905060328111610da25760019150610ddd565b60648111610db35760029150610ddc565b60968111610dc45760039150610ddb565b60c88111610dd55760049150610dda565b600591505b5b5b5b50919050565b606060006001610df284610eb1565b01905060008167ffffffffffffffff811115610e1157610e10611067565b5b6040519080825280601f01601f191660200182016040528015610e435781602001600182028036833780820191505090505b509050600082602001820190505b600115610ea6578080600190039150507f3031323334353637383961626364656600000000000000000000000000000000600a86061a8153600a8581610e9a57610e996118df565b5b04945060008503610e51575b819350505050919050565b600080600090507a184f03e93ff9f4daa797ed6e38ed64bf6a1f0100000000000000008310610f0f577a184f03e93ff9f4daa797ed6e38ed64bf6a1f0100000000000000008381610f0557610f046118df565b5b0492506040810190505b6d04ee2d6d415b85acef81000000008310610f4c576d04ee2d6d415b85acef81000000008381610f4257610f416118df565b5b0492506020810190505b662386f26fc100008310610f7b57662386f26fc100008381610f7157610f706118df565b5b0492506010810190505b6305f5e1008310610fa4576305f5e1008381610f9a57610f996118df565b5b0492506008810190505b6127108310610fc9576127108381610fbf57610fbe6118df565b5b0492506004810190505b60648310610fec5760648381610fe257610fe16118df565b5b0492506002810190505b600a8310610ffb576001810190505b80915050919050565b6000819050919050565b61101781611004565b82525050565b6000602082019050611032600083018461100e565b92915050565b6000604051905090565b600080fd5b600080fd5b600080fd5b600080fd5b6000601f19601f8301169050919050565b7f4e487b7100000000000000000000000000000000000000000000000000000000600052604160045260246000fd5b61109f82611056565b810181811067ffffffffffffffff821117156110be576110bd611067565b5b80604052505050565b60006110d1611038565b90506110dd8282611096565b919050565b600067ffffffffffffffff8211156110fd576110fc611067565b5b61110682611056565b9050602081019050919050565b82818337600083830152505050565b6000611135611130846110e2565b6110c7565b90508281526020810184848401111561115157611150611051565b5b61115c848285611113565b509392505050565b600082601f8301126111795761117861104c565b5b8135611189848260208601611122565b91505092915050565b6000602082840312156111a8576111a7611042565b5b600082013567ffffffffffffffff8111156111c6576111c5611047565b5b6111d284828501611164565b91505092915050565b600073ffffffffffffffffffffffffffffffffffffffff82169050919050565b6000611206826111db565b9050919050565b611216816111fb565b811461122157600080fd5b50565b6000813590506112338161120d565b92915050565b600080604083850312156112505761124f611042565b5b600061125e85828601611224565b925050602061126f85828601611224565b9150509250929050565b60006020828403121561128f5761128e611042565b5b600061129d84828501611224565b91505092915050565b6112af81611004565b81146112ba57600080fd5b50565b6000813590506112cc816112a6565b92915050565b6000602082840312156112e8576112e7611042565b5b60006112f6848285016112bd565b91505092915050565b6000604082019050611314600083018561100e565b611321602083018461100e565b9392505050565b6000806040838503121561133f5761133e611042565b5b600061134d85828601611224565b925050602061135e858286016112bd565b9150509250929050565b600082825260208201905092915050565b7f43616e6e6f742068617665206d6f7265207468616e2033205552497300000000600082015250565b60006113af601c83611368565b91506113ba82611379565b602082019050919050565b600060208201905081810360008301526113de816113a2565b9050919050565b600081519050919050565b7f4e487b7100000000000000000000000000000000000000000000000000000000600052602260045260246000fd5b6000600282049050600182168061143757607f821691505b60208210810361144a576114496113f0565b5b50919050565b60008190508160005260206000209050919050565b60006020601f8301049050919050565b600082821b905092915050565b6000600883026114b27fffffffffffffffffffffffffffffffffffffffffffffffffffffffffffffffff82611475565b6114bc8683611475565b95508019841693508086168417925050509392505050565b6000819050919050565b60006114f96114f46114ef84611004565b6114d4565b611004565b9050919050565b6000819050919050565b611513836114de565b61152761151f82611500565b848454611482565b825550505050565b600090565b61153c61152f565b61154781848461150a565b505050565b5b8181101561156b57611560600082611534565b60018101905061154d565b5050565b601f8211156115b05761158181611450565b61158a84611465565b81016020851015611599578190505b6115ad6115a585611465565b83018261154c565b50505b505050565b600082821c905092915050565b60006115d3600019846008026115b5565b1980831691505092915050565b60006115ec83836115c2565b9150826002028217905092915050565b611605826113e5565b67ffffffffffffffff81111561161e5761161d611067565b5b611628825461141f565b61163382828561156f565b600060209050601f8311600181146116665760008415611654578287015190505b61165e85826115e0565b8655506116c6565b601f19841661167486611450565b60005b8281101561169c57848901518255600182019150602085019450602081019050611677565b868310156116b957848901516116b5601f8916826115c2565b8355505b6001600288020188555050505b505050505050565b7f496e76616c696420416464726573736573000000000000000000000000000000600082015250565b6000611704601183611368565b915061170f826116ce565b602082019050919050565b60006020820190508181036000830152611733816116f7565b9050919050565b7f4e487b7100000000000000000000000000000000000000000000000000000000600052603260045260246000fd5b7f4e487b7100000000000000000000000000000000000000000000000000000000600052601160045260246000fd5b60006117a382611004565b91507fffffffffffffffffffffffffffffffffffffffffffffffffffffffffffffffff82036117d5576117d4611769565b5b600182019050919050565b6117e9816111fb565b82525050565b600060408201905061180460008301856117e0565b611811602083018461100e565b9392505050565b60005b8381101561183657808201518184015260208101905061181b565b60008484015250505050565b600061184d826113e5565b6118578185611368565b9350611867818560208601611818565b61187081611056565b840191505092915050565b6000604082019050611890600083018561100e565b81810360208301526118a28184611842565b90509392505050565b60006118b682611004565b91506118c183611004565b92508282019050808211156118d9576118d8611769565b5b92915050565b7f4e487b7100000000000000000000000000000000000000000000000000000000600052601260045260246000fd5b600061191982611004565b915061192483611004565b925082611934576119336118df565b5b828206905092915050565b600061194a82611004565b915061195583611004565b925082820390508181111561196d5761196c611769565b5b92915050565b600061197e82611004565b915061198983611004565b925082611999576119986118df565b5b828204905092915050565b600081905092915050565b60006119ba826113e5565b6119c481856119a4565b93506119d4818560208601611818565b80840191505092915050565b7f2f00000000000000000000000000000000000000000000000000000000000000600082015250565b6000611a166001836119a4565b9150611a21826119e0565b600182019050919050565b6000611a3882866119af565b9150611a4482856119af565b9150611a4f82611a09565b9150611a5b82846119af565b915081905094935050505056fea26469706673582212203d61c489c964d3477e4656afca3dce2cd0ce8e423ac2613e02bcb149c9ed364a64736f6c63430008110033",
  "linkReferences": {},
  "deployedLinkReferences": {}
}