{
  "_format": "hh-sol-artifact-1",
  "contractName": "TreegenNFT",
  "sourceName": "contracts/NFTMinter.sol",
  "abi": [
    {
      "inputs": [],
      "stateMutability": "nonpayable",
      "type": "constructor"
    },
    {
      "anonymous": false,
      "inputs": [
        {
          "indexed": true,
          "internalType": "address",
          "name": "owner",
          "type": "address"
        },
        {
          "indexed": true,
          "internalType": "address",
          "name": "approved",
          "type": "address"
        },
        {
          "indexed": true,
          "internalType": "uint256",
          "name": "tokenId",
          "type": "uint256"
        }
      ],
      "name": "Approval",
      "type": "event"
    },
    {
      "anonymous": false,
      "inputs": [
        {
          "indexed": true,
          "internalType": "address",
          "name": "owner",
          "type": "address"
        },
        {
          "indexed": true,
          "internalType": "address",
          "name": "operator",
          "type": "address"
        },
        {
          "indexed": false,
          "internalType": "bool",
          "name": "approved",
          "type": "bool"
        }
      ],
      "name": "ApprovalForAll",
      "type": "event"
    },
    {
      "anonymous": false,
      "inputs": [
        {
          "indexed": true,
          "internalType": "address",
          "name": "previousOwner",
          "type": "address"
        },
        {
          "indexed": true,
          "internalType": "address",
          "name": "newOwner",
          "type": "address"
        }
      ],
      "name": "OwnershipTransferred",
      "type": "event"
    },
    {
      "anonymous": false,
      "inputs": [
        {
          "indexed": true,
          "internalType": "address",
          "name": "from",
          "type": "address"
        },
        {
          "indexed": true,
          "internalType": "address",
          "name": "to",
          "type": "address"
        },
        {
          "indexed": true,
          "internalType": "uint256",
          "name": "tokenId",
          "type": "uint256"
        }
      ],
      "name": "Transfer",
      "type": "event"
    },
    {
      "inputs": [
        {
          "internalType": "address",
          "name": "to",
          "type": "address"
        },
        {
          "internalType": "uint256",
          "name": "tokenId",
          "type": "uint256"
        }
      ],
      "name": "approve",
      "outputs": [],
      "stateMutability": "nonpayable",
      "type": "function"
    },
    {
      "inputs": [
        {
          "internalType": "address",
          "name": "owner",
          "type": "address"
        }
      ],
      "name": "balanceOf",
      "outputs": [
        {
          "internalType": "uint256",
          "name": "",
          "type": "uint256"
        }
      ],
      "stateMutability": "view",
      "type": "function"
    },
    {
      "inputs": [
        {
          "internalType": "uint256",
          "name": "tokenId",
          "type": "uint256"
        }
      ],
      "name": "getApproved",
      "outputs": [
        {
          "internalType": "address",
          "name": "",
          "type": "address"
        }
      ],
      "stateMutability": "view",
      "type": "function"
    },
    {
      "inputs": [
        {
          "internalType": "address",
          "name": "owner",
          "type": "address"
        },
        {
          "internalType": "address",
          "name": "operator",
          "type": "address"
        }
      ],
      "name": "isApprovedForAll",
      "outputs": [
        {
          "internalType": "bool",
          "name": "",
          "type": "bool"
        }
      ],
      "stateMutability": "view",
      "type": "function"
    },
    {
      "inputs": [],
      "name": "management",
      "outputs": [
        {
          "internalType": "address",
          "name": "",
          "type": "address"
        }
      ],
      "stateMutability": "view",
      "type": "function"
    },
    {
      "inputs": [],
      "name": "name",
      "outputs": [
        {
          "internalType": "string",
          "name": "",
          "type": "string"
        }
      ],
      "stateMutability": "view",
      "type": "function"
    },
    {
      "inputs": [],
      "name": "owner",
      "outputs": [
        {
          "internalType": "address",
          "name": "",
          "type": "address"
        }
      ],
      "stateMutability": "view",
      "type": "function"
    },
    {
      "inputs": [
        {
          "internalType": "uint256",
          "name": "tokenId",
          "type": "uint256"
        }
      ],
      "name": "ownerOf",
      "outputs": [
        {
          "internalType": "address",
          "name": "",
          "type": "address"
        }
      ],
      "stateMutability": "view",
      "type": "function"
    },
    {
      "inputs": [],
      "name": "renounceOwnership",
      "outputs": [],
      "stateMutability": "nonpayable",
      "type": "function"
    },
    {
      "inputs": [
        {
          "internalType": "address",
          "name": "to",
          "type": "address"
        },
        {
          "internalType": "uint256",
          "name": "tokenId",
          "type": "uint256"
        }
      ],
      "name": "safeMint",
      "outputs": [],
      "stateMutability": "nonpayable",
      "type": "function"
    },
    {
      "inputs": [
        {
          "internalType": "address",
          "name": "from",
          "type": "address"
        },
        {
          "internalType": "address",
          "name": "to",
          "type": "address"
        },
        {
          "internalType": "uint256",
          "name": "tokenId",
          "type": "uint256"
        }
      ],
      "name": "safeTransferFrom",
      "outputs": [],
      "stateMutability": "nonpayable",
      "type": "function"
    },
    {
      "inputs": [
        {
          "internalType": "address",
          "name": "from",
          "type": "address"
        },
        {
          "internalType": "address",
          "name": "to",
          "type": "address"
        },
        {
          "internalType": "uint256",
          "name": "tokenId",
          "type": "uint256"
        },
        {
          "internalType": "bytes",
          "name": "data",
          "type": "bytes"
        }
      ],
      "name": "safeTransferFrom",
      "outputs": [],
      "stateMutability": "nonpayable",
      "type": "function"
    },
    {
      "inputs": [
        {
          "internalType": "address",
          "name": "operator",
          "type": "address"
        },
        {
          "internalType": "bool",
          "name": "approved",
          "type": "bool"
        }
      ],
      "name": "setApprovalForAll",
      "outputs": [],
      "stateMutability": "nonpayable",
      "type": "function"
    },
    {
      "inputs": [
        {
          "internalType": "address",
          "name": "_address",
          "type": "address"
        }
      ],
      "name": "setManagementContract",
      "outputs": [],
      "stateMutability": "nonpayable",
      "type": "function"
    },
    {
      "inputs": [
        {
          "internalType": "bytes4",
          "name": "interfaceId",
          "type": "bytes4"
        }
      ],
      "name": "supportsInterface",
      "outputs": [
        {
          "internalType": "bool",
          "name": "",
          "type": "bool"
        }
      ],
      "stateMutability": "view",
      "type": "function"
    },
    {
      "inputs": [],
      "name": "symbol",
      "outputs": [
        {
          "internalType": "string",
          "name": "",
          "type": "string"
        }
      ],
      "stateMutability": "view",
      "type": "function"
    },
    {
      "inputs": [
        {
          "internalType": "uint256",
          "name": "tokenId",
          "type": "uint256"
        }
      ],
      "name": "tokenURI",
      "outputs": [
        {
          "internalType": "string",
          "name": "",
          "type": "string"
        }
      ],
      "stateMutability": "view",
      "type": "function"
    },
    {
      "inputs": [
        {
          "internalType": "address",
          "name": "from",
          "type": "address"
        },
        {
          "internalType": "address",
          "name": "to",
          "type": "address"
        },
        {
          "internalType": "uint256",
          "name": "tokenId",
          "type": "uint256"
        }
      ],
      "name": "transferFrom",
      "outputs": [],
      "stateMutability": "nonpayable",
      "type": "function"
    },
    {
      "inputs": [
        {
          "internalType": "address",
          "name": "newOwner",
          "type": "address"
        }
      ],
      "name": "transferOwnership",
      "outputs": [],
      "stateMutability": "nonpayable",
      "type": "function"
    },
    {
      "inputs": [
        {
          "internalType": "uint256",
          "name": "tokenId",
          "type": "uint256"
        },
        {
          "internalType": "string",
          "name": "uri",
          "type": "string"
        }
      ],
      "name": "updateURI",
      "outputs": [],
      "stateMutability": "nonpayable",
      "type": "function"
    }
  ],
  "bytecode": "0x60806040523480156200001157600080fd5b506040518060400160405280600781526020017f5472656567656e000000000000000000000000000000000000000000000000008152506040518060400160405280600781526020017f5472656567656e0000000000000000000000000000000000000000000000000081525081600090816200008f919062000412565b508060019081620000a1919062000412565b505050620000c4620000b8620000ca60201b60201c565b620000d260201b60201c565b620004f9565b600033905090565b6000600760009054906101000a900473ffffffffffffffffffffffffffffffffffffffff16905081600760006101000a81548173ffffffffffffffffffffffffffffffffffffffff021916908373ffffffffffffffffffffffffffffffffffffffff1602179055508173ffffffffffffffffffffffffffffffffffffffff168173ffffffffffffffffffffffffffffffffffffffff167f8be0079c531659141344cd1fd0a4f28419497f9722a3daafe3b4186f6b6457e060405160405180910390a35050565b600081519050919050565b7f4e487b7100000000000000000000000000000000000000000000000000000000600052604160045260246000fd5b7f4e487b7100000000000000000000000000000000000000000000000000000000600052602260045260246000fd5b600060028204905060018216806200021a57607f821691505b60208210810362000230576200022f620001d2565b5b50919050565b60008190508160005260206000209050919050565b60006020601f8301049050919050565b600082821b905092915050565b6000600883026200029a7fffffffffffffffffffffffffffffffffffffffffffffffffffffffffffffffff826200025b565b620002a686836200025b565b95508019841693508086168417925050509392505050565b6000819050919050565b6000819050919050565b6000620002f3620002ed620002e784620002be565b620002c8565b620002be565b9050919050565b6000819050919050565b6200030f83620002d2565b620003276200031e82620002fa565b84845462000268565b825550505050565b600090565b6200033e6200032f565b6200034b81848462000304565b505050565b5b8181101562000373576200036760008262000334565b60018101905062000351565b5050565b601f821115620003c2576200038c8162000236565b62000397846200024b565b81016020851015620003a7578190505b620003bf620003b6856200024b565b83018262000350565b50505b505050565b600082821c905092915050565b6000620003e760001984600802620003c7565b1980831691505092915050565b6000620004028383620003d4565b9150826002028217905092915050565b6200041d8262000198565b67ffffffffffffffff811115620004395762000438620001a3565b5b62000445825462000201565b6200045282828562000377565b600060209050601f8311600181146200048a576000841562000475578287015190505b620004818582620003f4565b865550620004f1565b601f1984166200049a8662000236565b60005b82811015620004c4578489015182556001820191506020850194506020810190506200049d565b86831015620004e45784890151620004e0601f891682620003d4565b8355505b6001600288020188555050505b505050505050565b6132fe80620005096000396000f3fe608060405234801561001057600080fd5b506004361061012c5760003560e01c8063715018a6116100ad578063a22cb46511610071578063a22cb4651461031b578063b88d4fde14610337578063c87b56dd14610353578063e985e9c514610383578063f2fde38b146103b35761012c565b8063715018a61461029b57806388a8d602146102a55780638da5cb5b146102c357806395d89b41146102e1578063a1448194146102ff5761012c565b806323b872dd116100f457806323b872dd146101e757806331d41c691461020357806342842e0e1461021f5780636352211e1461023b57806370a082311461026b5761012c565b806301ffc9a71461013157806306fdde0314610161578063081812fc1461017f578063095ea7b3146101af5780631df77caa146101cb575b600080fd5b61014b60048036038101906101469190611fec565b6103cf565b6040516101589190612034565b60405180910390f35b6101696103e1565b60405161017691906120df565b60405180910390f35b61019960048036038101906101949190612137565b610473565b6040516101a691906121a5565b60405180910390f35b6101c960048036038101906101c491906121ec565b6104b9565b005b6101e560048036038101906101e0919061222c565b6105d0565b005b61020160048036038101906101fc9190612259565b610655565b005b61021d600480360381019061021891906123e1565b6106a4565b005b61023960048036038101906102349190612259565b610742565b005b61025560048036038101906102509190612137565b610762565b60405161026291906121a5565b60405180910390f35b6102856004803603810190610280919061222c565b6107e8565b604051610292919061244c565b60405180910390f35b6102a361089f565b005b6102ad6108b3565b6040516102ba91906121a5565b60405180910390f35b6102cb6108d9565b6040516102d891906121a5565b60405180910390f35b6102e9610903565b6040516102f691906120df565b60405180910390f35b610319600480360381019061031491906121ec565b610995565b005b61033560048036038101906103309190612493565b610a33565b005b610351600480360381019061034c9190612574565b610a49565b005b61036d60048036038101906103689190612137565b610a9a565b60405161037a91906120df565b60405180910390f35b61039d600480360381019061039891906125f7565b610aac565b6040516103aa9190612034565b60405180910390f35b6103cd60048036038101906103c8919061222c565b610b40565b005b60006103da82610bc3565b9050919050565b6060600080546103f090612666565b80601f016020809104026020016040519081016040528092919081815260200182805461041c90612666565b80156104695780601f1061043e57610100808354040283529160200191610469565b820191906000526020600020905b81548152906001019060200180831161044c57829003601f168201915b5050505050905090565b600061047e82610ca5565b6004600083815260200190815260200160002060009054906101000a900473ffffffffffffffffffffffffffffffffffffffff169050919050565b60006104c482610762565b90508073ffffffffffffffffffffffffffffffffffffffff168373ffffffffffffffffffffffffffffffffffffffff1603610534576040517f08c379a000000000000000000000000000000000000000000000000000000000815260040161052b90612709565b60405180910390fd5b8073ffffffffffffffffffffffffffffffffffffffff16610553610cf0565b73ffffffffffffffffffffffffffffffffffffffff16148061058257506105818161057c610cf0565b610aac565b5b6105c1576040517f08c379a00000000000000000000000000000000000000000000000000000000081526004016105b89061279b565b60405180910390fd5b6105cb8383610cf8565b505050565b6105d8610db1565b600073ffffffffffffffffffffffffffffffffffffffff168173ffffffffffffffffffffffffffffffffffffffff160361061157600080fd5b80600860006101000a81548173ffffffffffffffffffffffffffffffffffffffff021916908373ffffffffffffffffffffffffffffffffffffffff16021790555050565b610660838383610e2f565b61069f816040518060400160405280600681526020017f312e6a736f6e0000000000000000000000000000000000000000000000000000815250610e8f565b505050565b600860009054906101000a900473ffffffffffffffffffffffffffffffffffffffff1673ffffffffffffffffffffffffffffffffffffffff163373ffffffffffffffffffffffffffffffffffffffff1614610734576040517f08c379a000000000000000000000000000000000000000000000000000000000815260040161072b90612807565b60405180910390fd5b61073e8282610e8f565b5050565b61075d83838360405180602001604052806000815250610a49565b505050565b60008061076e83610efc565b9050600073ffffffffffffffffffffffffffffffffffffffff168173ffffffffffffffffffffffffffffffffffffffff16036107df576040517f08c379a00000000000000000000000000000000000000000000000000000000081526004016107d690612873565b60405180910390fd5b80915050919050565b60008073ffffffffffffffffffffffffffffffffffffffff168273ffffffffffffffffffffffffffffffffffffffff1603610858576040517f08c379a000000000000000000000000000000000000000000000000000000000815260040161084f90612905565b60405180910390fd5b600360008373ffffffffffffffffffffffffffffffffffffffff1673ffffffffffffffffffffffffffffffffffffffff168152602001908152602001600020549050919050565b6108a7610db1565b6108b16000610f39565b565b600860009054906101000a900473ffffffffffffffffffffffffffffffffffffffff1681565b6000600760009054906101000a900473ffffffffffffffffffffffffffffffffffffffff16905090565b60606001805461091290612666565b80601f016020809104026020016040519081016040528092919081815260200182805461093e90612666565b801561098b5780601f106109605761010080835404028352916020019161098b565b820191906000526020600020905b81548152906001019060200180831161096e57829003601f168201915b5050505050905090565b600860009054906101000a900473ffffffffffffffffffffffffffffffffffffffff1673ffffffffffffffffffffffffffffffffffffffff163373ffffffffffffffffffffffffffffffffffffffff1614610a25576040517f08c379a0000000000000000000000000000000000000000000000000000000008152600401610a1c90612807565b60405180910390fd5b610a2f8282610fff565b5050565b610a45610a3e610cf0565b838361101d565b5050565b610a5584848484611189565b610a94826040518060400160405280600681526020017f312e6a736f6e0000000000000000000000000000000000000000000000000000815250610e8f565b50505050565b6060610aa5826111eb565b9050919050565b6000600560008473ffffffffffffffffffffffffffffffffffffffff1673ffffffffffffffffffffffffffffffffffffffff16815260200190815260200160002060008373ffffffffffffffffffffffffffffffffffffffff1673ffffffffffffffffffffffffffffffffffffffff16815260200190815260200160002060009054906101000a900460ff16905092915050565b610b48610db1565b600073ffffffffffffffffffffffffffffffffffffffff168173ffffffffffffffffffffffffffffffffffffffff1603610bb7576040517f08c379a0000000000000000000000000000000000000000000000000000000008152600401610bae90612997565b60405180910390fd5b610bc081610f39565b50565b60007f80ac58cd000000000000000000000000000000000000000000000000000000007bffffffffffffffffffffffffffffffffffffffffffffffffffffffff1916827bffffffffffffffffffffffffffffffffffffffffffffffffffffffff19161480610c8e57507f5b5e139f000000000000000000000000000000000000000000000000000000007bffffffffffffffffffffffffffffffffffffffffffffffffffffffff1916827bffffffffffffffffffffffffffffffffffffffffffffffffffffffff1916145b80610c9e5750610c9d826112fd565b5b9050919050565b610cae81611367565b610ced576040517f08c379a0000000000000000000000000000000000000000000000000000000008152600401610ce490612873565b60405180910390fd5b50565b600033905090565b816004600083815260200190815260200160002060006101000a81548173ffffffffffffffffffffffffffffffffffffffff021916908373ffffffffffffffffffffffffffffffffffffffff160217905550808273ffffffffffffffffffffffffffffffffffffffff16610d6b83610762565b73ffffffffffffffffffffffffffffffffffffffff167f8c5be1e5ebec7d5bd14f71427d1e84f3dd0314c0f7b2291e5b200ac8c7c3b92560405160405180910390a45050565b610db9610cf0565b73ffffffffffffffffffffffffffffffffffffffff16610dd76108d9565b73ffffffffffffffffffffffffffffffffffffffff1614610e2d576040517f08c379a0000000000000000000000000000000000000000000000000000000008152600401610e2490612a03565b60405180910390fd5b565b610e40610e3a610cf0565b826113a8565b610e7f576040517f08c379a0000000000000000000000000000000000000000000000000000000008152600401610e7690612a95565b60405180910390fd5b610e8a83838361143d565b505050565b610e9882611367565b610ed7576040517f08c379a0000000000000000000000000000000000000000000000000000000008152600401610ece90612b27565b60405180910390fd5b80600660008481526020019081526020016000209081610ef79190612cf3565b505050565b60006002600083815260200190815260200160002060009054906101000a900473ffffffffffffffffffffffffffffffffffffffff169050919050565b6000600760009054906101000a900473ffffffffffffffffffffffffffffffffffffffff16905081600760006101000a81548173ffffffffffffffffffffffffffffffffffffffff021916908373ffffffffffffffffffffffffffffffffffffffff1602179055508173ffffffffffffffffffffffffffffffffffffffff168173ffffffffffffffffffffffffffffffffffffffff167f8be0079c531659141344cd1fd0a4f28419497f9722a3daafe3b4186f6b6457e060405160405180910390a35050565b611019828260405180602001604052806000815250611736565b5050565b8173ffffffffffffffffffffffffffffffffffffffff168373ffffffffffffffffffffffffffffffffffffffff160361108b576040517f08c379a000000000000000000000000000000000000000000000000000000000815260040161108290612e11565b60405180910390fd5b80600560008573ffffffffffffffffffffffffffffffffffffffff1673ffffffffffffffffffffffffffffffffffffffff16815260200190815260200160002060008473ffffffffffffffffffffffffffffffffffffffff1673ffffffffffffffffffffffffffffffffffffffff16815260200190815260200160002060006101000a81548160ff0219169083151502179055508173ffffffffffffffffffffffffffffffffffffffff168373ffffffffffffffffffffffffffffffffffffffff167f17307eab39ab6107e8899845ad3d59bd9653f200f220920489ca2b5937696c318360405161117c9190612034565b60405180910390a3505050565b61119a611194610cf0565b836113a8565b6111d9576040517f08c379a00000000000000000000000000000000000000000000000000000000081526004016111d090612a95565b60405180910390fd5b6111e584848484611791565b50505050565b60606111f682610ca5565b600060066000848152602001908152602001600020805461121690612666565b80601f016020809104026020016040519081016040528092919081815260200182805461124290612666565b801561128f5780601f106112645761010080835404028352916020019161128f565b820191906000526020600020905b81548152906001019060200180831161127257829003601f168201915b5050505050905060006112a06117ed565b905060008151036112b55781925050506112f8565b6000825111156112ea5780826040516020016112d2929190612e6d565b604051602081830303815290604052925050506112f8565b6112f384611804565b925050505b919050565b60007f01ffc9a7000000000000000000000000000000000000000000000000000000007bffffffffffffffffffffffffffffffffffffffffffffffffffffffff1916827bffffffffffffffffffffffffffffffffffffffffffffffffffffffff1916149050919050565b60008073ffffffffffffffffffffffffffffffffffffffff1661138983610efc565b73ffffffffffffffffffffffffffffffffffffffff1614159050919050565b6000806113b483610762565b90508073ffffffffffffffffffffffffffffffffffffffff168473ffffffffffffffffffffffffffffffffffffffff1614806113f657506113f58185610aac565b5b8061143457508373ffffffffffffffffffffffffffffffffffffffff1661141c84610473565b73ffffffffffffffffffffffffffffffffffffffff16145b91505092915050565b8273ffffffffffffffffffffffffffffffffffffffff1661145d82610762565b73ffffffffffffffffffffffffffffffffffffffff16146114b3576040517f08c379a00000000000000000000000000000000000000000000000000000000081526004016114aa90612f03565b60405180910390fd5b600073ffffffffffffffffffffffffffffffffffffffff168273ffffffffffffffffffffffffffffffffffffffff1603611522576040517f08c379a000000000000000000000000000000000000000000000000000000000815260040161151990612f95565b60405180910390fd5b61152f838383600161186c565b8273ffffffffffffffffffffffffffffffffffffffff1661154f82610762565b73ffffffffffffffffffffffffffffffffffffffff16146115a5576040517f08c379a000000000000000000000000000000000000000000000000000000000815260040161159c90612f03565b60405180910390fd5b6004600082815260200190815260200160002060006101000a81549073ffffffffffffffffffffffffffffffffffffffff02191690556001600360008573ffffffffffffffffffffffffffffffffffffffff1673ffffffffffffffffffffffffffffffffffffffff168152602001908152602001600020600082825403925050819055506001600360008473ffffffffffffffffffffffffffffffffffffffff1673ffffffffffffffffffffffffffffffffffffffff16815260200190815260200160002060008282540192505081905550816002600083815260200190815260200160002060006101000a81548173ffffffffffffffffffffffffffffffffffffffff021916908373ffffffffffffffffffffffffffffffffffffffff160217905550808273ffffffffffffffffffffffffffffffffffffffff168473ffffffffffffffffffffffffffffffffffffffff167fddf252ad1be2c89b69c2b068fc378daa952ba7f163c4a11628f55a4df523b3ef60405160405180910390a46117318383836001611992565b505050565b6117408383611998565b61174d6000848484611bb5565b61178c576040517f08c379a000000000000000000000000000000000000000000000000000000000815260040161178390613027565b60405180910390fd5b505050565b61179c84848461143d565b6117a884848484611bb5565b6117e7576040517f08c379a00000000000000000000000000000000000000000000000000000000081526004016117de90613027565b60405180910390fd5b50505050565b606060405180602001604052806000815250905090565b606061180f82610ca5565b60006118196117ed565b905060008151116118395760405180602001604052806000815250611864565b8061184384611d3c565b604051602001611854929190612e6d565b6040516020818303038152906040525b915050919050565b600181111561198c57600073ffffffffffffffffffffffffffffffffffffffff168473ffffffffffffffffffffffffffffffffffffffff16146119005780600360008673ffffffffffffffffffffffffffffffffffffffff1673ffffffffffffffffffffffffffffffffffffffff16815260200190815260200160002060008282546118f89190613076565b925050819055505b600073ffffffffffffffffffffffffffffffffffffffff168373ffffffffffffffffffffffffffffffffffffffff161461198b5780600360008573ffffffffffffffffffffffffffffffffffffffff1673ffffffffffffffffffffffffffffffffffffffff168152602001908152602001600020600082825461198391906130aa565b925050819055505b5b50505050565b50505050565b600073ffffffffffffffffffffffffffffffffffffffff168273ffffffffffffffffffffffffffffffffffffffff1603611a07576040517f08c379a00000000000000000000000000000000000000000000000000000000081526004016119fe9061312a565b60405180910390fd5b611a1081611367565b15611a50576040517f08c379a0000000000000000000000000000000000000000000000000000000008152600401611a4790613196565b60405180910390fd5b611a5e60008383600161186c565b611a6781611367565b15611aa7576040517f08c379a0000000000000000000000000000000000000000000000000000000008152600401611a9e90613196565b60405180910390fd5b6001600360008473ffffffffffffffffffffffffffffffffffffffff1673ffffffffffffffffffffffffffffffffffffffff16815260200190815260200160002060008282540192505081905550816002600083815260200190815260200160002060006101000a81548173ffffffffffffffffffffffffffffffffffffffff021916908373ffffffffffffffffffffffffffffffffffffffff160217905550808273ffffffffffffffffffffffffffffffffffffffff16600073ffffffffffffffffffffffffffffffffffffffff167fddf252ad1be2c89b69c2b068fc378daa952ba7f163c4a11628f55a4df523b3ef60405160405180910390a4611bb1600083836001611992565b5050565b6000611bd68473ffffffffffffffffffffffffffffffffffffffff16611e0a565b15611d2f578373ffffffffffffffffffffffffffffffffffffffff1663150b7a02611bff610cf0565b8786866040518563ffffffff1660e01b8152600401611c21949392919061320b565b6020604051808303816000875af1925050508015611c5d57506040513d601f19601f82011682018060405250810190611c5a919061326c565b60015b611cdf573d8060008114611c8d576040519150601f19603f3d011682016040523d82523d6000602084013e611c92565b606091505b506000815103611cd7576040517f08c379a0000000000000000000000000000000000000000000000000000000008152600401611cce90613027565b60405180910390fd5b805181602001fd5b63150b7a0260e01b7bffffffffffffffffffffffffffffffffffffffffffffffffffffffff1916817bffffffffffffffffffffffffffffffffffffffffffffffffffffffff191614915050611d34565b600190505b949350505050565b606060006001611d4b84611e2d565b01905060008167ffffffffffffffff811115611d6a57611d696122b6565b5b6040519080825280601f01601f191660200182016040528015611d9c5781602001600182028036833780820191505090505b509050600082602001820190505b600115611dff578080600190039150507f3031323334353637383961626364656600000000000000000000000000000000600a86061a8153600a8581611df357611df2613299565b5b04945060008503611daa575b819350505050919050565b6000808273ffffffffffffffffffffffffffffffffffffffff163b119050919050565b600080600090507a184f03e93ff9f4daa797ed6e38ed64bf6a1f0100000000000000008310611e8b577a184f03e93ff9f4daa797ed6e38ed64bf6a1f0100000000000000008381611e8157611e80613299565b5b0492506040810190505b6d04ee2d6d415b85acef81000000008310611ec8576d04ee2d6d415b85acef81000000008381611ebe57611ebd613299565b5b0492506020810190505b662386f26fc100008310611ef757662386f26fc100008381611eed57611eec613299565b5b0492506010810190505b6305f5e1008310611f20576305f5e1008381611f1657611f15613299565b5b0492506008810190505b6127108310611f45576127108381611f3b57611f3a613299565b5b0492506004810190505b60648310611f685760648381611f5e57611f5d613299565b5b0492506002810190505b600a8310611f77576001810190505b80915050919050565b6000604051905090565b600080fd5b600080fd5b60007fffffffff0000000000000000000000000000000000000000000000000000000082169050919050565b611fc981611f94565b8114611fd457600080fd5b50565b600081359050611fe681611fc0565b92915050565b60006020828403121561200257612001611f8a565b5b600061201084828501611fd7565b91505092915050565b60008115159050919050565b61202e81612019565b82525050565b60006020820190506120496000830184612025565b92915050565b600081519050919050565b600082825260208201905092915050565b60005b8381101561208957808201518184015260208101905061206e565b60008484015250505050565b6000601f19601f8301169050919050565b60006120b18261204f565b6120bb818561205a565b93506120cb81856020860161206b565b6120d481612095565b840191505092915050565b600060208201905081810360008301526120f981846120a6565b905092915050565b6000819050919050565b61211481612101565b811461211f57600080fd5b50565b6000813590506121318161210b565b92915050565b60006020828403121561214d5761214c611f8a565b5b600061215b84828501612122565b91505092915050565b600073ffffffffffffffffffffffffffffffffffffffff82169050919050565b600061218f82612164565b9050919050565b61219f81612184565b82525050565b60006020820190506121ba6000830184612196565b92915050565b6121c981612184565b81146121d457600080fd5b50565b6000813590506121e6816121c0565b92915050565b6000806040838503121561220357612202611f8a565b5b6000612211858286016121d7565b925050602061222285828601612122565b9150509250929050565b60006020828403121561224257612241611f8a565b5b6000612250848285016121d7565b91505092915050565b60008060006060848603121561227257612271611f8a565b5b6000612280868287016121d7565b9350506020612291868287016121d7565b92505060406122a286828701612122565b9150509250925092565b600080fd5b600080fd5b7f4e487b7100000000000000000000000000000000000000000000000000000000600052604160045260246000fd5b6122ee82612095565b810181811067ffffffffffffffff8211171561230d5761230c6122b6565b5b80604052505050565b6000612320611f80565b905061232c82826122e5565b919050565b600067ffffffffffffffff82111561234c5761234b6122b6565b5b61235582612095565b9050602081019050919050565b82818337600083830152505050565b600061238461237f84612331565b612316565b9050828152602081018484840111156123a05761239f6122b1565b5b6123ab848285612362565b509392505050565b600082601f8301126123c8576123c76122ac565b5b81356123d8848260208601612371565b91505092915050565b600080604083850312156123f8576123f7611f8a565b5b600061240685828601612122565b925050602083013567ffffffffffffffff81111561242757612426611f8f565b5b612433858286016123b3565b9150509250929050565b61244681612101565b82525050565b6000602082019050612461600083018461243d565b92915050565b61247081612019565b811461247b57600080fd5b50565b60008135905061248d81612467565b92915050565b600080604083850312156124aa576124a9611f8a565b5b60006124b8858286016121d7565b92505060206124c98582860161247e565b9150509250929050565b600067ffffffffffffffff8211156124ee576124ed6122b6565b5b6124f782612095565b9050602081019050919050565b6000612517612512846124d3565b612316565b905082815260208101848484011115612533576125326122b1565b5b61253e848285612362565b509392505050565b600082601f83011261255b5761255a6122ac565b5b813561256b848260208601612504565b91505092915050565b6000806000806080858703121561258e5761258d611f8a565b5b600061259c878288016121d7565b94505060206125ad878288016121d7565b93505060406125be87828801612122565b925050606085013567ffffffffffffffff8111156125df576125de611f8f565b5b6125eb87828801612546565b91505092959194509250565b6000806040838503121561260e5761260d611f8a565b5b600061261c858286016121d7565b925050602061262d858286016121d7565b9150509250929050565b7f4e487b7100000000000000000000000000000000000000000000000000000000600052602260045260246000fd5b6000600282049050600182168061267e57607f821691505b60208210810361269157612690612637565b5b50919050565b7f4552433732313a20617070726f76616c20746f2063757272656e74206f776e6560008201527f7200000000000000000000000000000000000000000000000000000000000000602082015250565b60006126f360218361205a565b91506126fe82612697565b604082019050919050565b60006020820190508181036000830152612722816126e6565b9050919050565b7f4552433732313a20617070726f76652063616c6c6572206973206e6f7420746f60008201527f6b656e206f776e6572206f7220617070726f76656420666f7220616c6c000000602082015250565b6000612785603d8361205a565b915061279082612729565b604082019050919050565b600060208201905081810360008301526127b481612778565b9050919050565b7f556e617574686f72697a65640000000000000000000000000000000000000000600082015250565b60006127f1600c8361205a565b91506127fc826127bb565b602082019050919050565b60006020820190508181036000830152612820816127e4565b9050919050565b7f4552433732313a20696e76616c696420746f6b656e2049440000000000000000600082015250565b600061285d60188361205a565b915061286882612827565b602082019050919050565b6000602082019050818103600083015261288c81612850565b9050919050565b7f4552433732313a2061646472657373207a65726f206973206e6f74206120766160008201527f6c6964206f776e65720000000000000000000000000000000000000000000000602082015250565b60006128ef60298361205a565b91506128fa82612893565b604082019050919050565b6000602082019050818103600083015261291e816128e2565b9050919050565b7f4f776e61626c653a206e6577206f776e657220697320746865207a65726f206160008201527f6464726573730000000000000000000000000000000000000000000000000000602082015250565b600061298160268361205a565b915061298c82612925565b604082019050919050565b600060208201905081810360008301526129b081612974565b9050919050565b7f4f776e61626c653a2063616c6c6572206973206e6f7420746865206f776e6572600082015250565b60006129ed60208361205a565b91506129f8826129b7565b602082019050919050565b60006020820190508181036000830152612a1c816129e0565b9050919050565b7f4552433732313a2063616c6c6572206973206e6f7420746f6b656e206f776e6560008201527f72206f7220617070726f76656400000000000000000000000000000000000000602082015250565b6000612a7f602d8361205a565b9150612a8a82612a23565b604082019050919050565b60006020820190508181036000830152612aae81612a72565b9050919050565b7f45524337323155524953746f726167653a2055524920736574206f66206e6f6e60008201527f6578697374656e7420746f6b656e000000000000000000000000000000000000602082015250565b6000612b11602e8361205a565b9150612b1c82612ab5565b604082019050919050565b60006020820190508181036000830152612b4081612b04565b9050919050565b60008190508160005260206000209050919050565b60006020601f8301049050919050565b600082821b905092915050565b600060088302612ba97fffffffffffffffffffffffffffffffffffffffffffffffffffffffffffffffff82612b6c565b612bb38683612b6c565b95508019841693508086168417925050509392505050565b6000819050919050565b6000612bf0612beb612be684612101565b612bcb565b612101565b9050919050565b6000819050919050565b612c0a83612bd5565b612c1e612c1682612bf7565b848454612b79565b825550505050565b600090565b612c33612c26565b612c3e818484612c01565b505050565b5b81811015612c6257612c57600082612c2b565b600181019050612c44565b5050565b601f821115612ca757612c7881612b47565b612c8184612b5c565b81016020851015612c90578190505b612ca4612c9c85612b5c565b830182612c43565b50505b505050565b600082821c905092915050565b6000612cca60001984600802612cac565b1980831691505092915050565b6000612ce38383612cb9565b9150826002028217905092915050565b612cfc8261204f565b67ffffffffffffffff811115612d1557612d146122b6565b5b612d1f8254612666565b612d2a828285612c66565b600060209050601f831160018114612d5d5760008415612d4b578287015190505b612d558582612cd7565b865550612dbd565b601f198416612d6b86612b47565b60005b82811015612d9357848901518255600182019150602085019450602081019050612d6e565b86831015612db05784890151612dac601f891682612cb9565b8355505b6001600288020188555050505b505050505050565b7f4552433732313a20617070726f766520746f2063616c6c657200000000000000600082015250565b6000612dfb60198361205a565b9150612e0682612dc5565b602082019050919050565b60006020820190508181036000830152612e2a81612dee565b9050919050565b600081905092915050565b6000612e478261204f565b612e518185612e31565b9350612e6181856020860161206b565b80840191505092915050565b6000612e798285612e3c565b9150612e858284612e3c565b91508190509392505050565b7f4552433732313a207472616e736665722066726f6d20696e636f72726563742060008201527f6f776e6572000000000000000000000000000000000000000000000000000000602082015250565b6000612eed60258361205a565b9150612ef882612e91565b604082019050919050565b60006020820190508181036000830152612f1c81612ee0565b9050919050565b7f4552433732313a207472616e7366657220746f20746865207a65726f2061646460008201527f7265737300000000000000000000000000000000000000000000000000000000602082015250565b6000612f7f60248361205a565b9150612f8a82612f23565b604082019050919050565b60006020820190508181036000830152612fae81612f72565b9050919050565b7f4552433732313a207472616e7366657220746f206e6f6e20455243373231526560008201527f63656976657220696d706c656d656e7465720000000000000000000000000000602082015250565b600061301160328361205a565b915061301c82612fb5565b604082019050919050565b6000602082019050818103600083015261304081613004565b9050919050565b7f4e487b7100000000000000000000000000000000000000000000000000000000600052601160045260246000fd5b600061308182612101565b915061308c83612101565b92508282039050818111156130a4576130a3613047565b5b92915050565b60006130b582612101565b91506130c083612101565b92508282019050808211156130d8576130d7613047565b5b92915050565b7f4552433732313a206d696e7420746f20746865207a65726f2061646472657373600082015250565b600061311460208361205a565b915061311f826130de565b602082019050919050565b6000602082019050818103600083015261314381613107565b9050919050565b7f4552433732313a20746f6b656e20616c7265616479206d696e74656400000000600082015250565b6000613180601c8361205a565b915061318b8261314a565b602082019050919050565b600060208201905081810360008301526131af81613173565b9050919050565b600081519050919050565b600082825260208201905092915050565b60006131dd826131b6565b6131e781856131c1565b93506131f781856020860161206b565b61320081612095565b840191505092915050565b60006080820190506132206000830187612196565b61322d6020830186612196565b61323a604083018561243d565b818103606083015261324c81846131d2565b905095945050505050565b60008151905061326681611fc0565b92915050565b60006020828403121561328257613281611f8a565b5b600061329084828501613257565b91505092915050565b7f4e487b7100000000000000000000000000000000000000000000000000000000600052601260045260246000fdfea264697066735822122057d096558ebcf1fd849ddbee592c27f40bba542027bc65b967d2216b30a2276064736f6c63430008110033",
  "linkReferences": {},
  "deployedLinkReferences": {}
}