{
  "_format": "hh-sol-artifact-1",
  "contractName": "TGNVault",
  "sourceName": "contracts/TGNVault.sol",
  "abi": [
    {
      "inputs": [
        {
          "internalType": "address",
          "name": "_tgnToken",
          "type": "address"
        }
      ],
      "stateMutability": "nonpayable",
      "type": "constructor"
    },
    {
      "anonymous": false,
      "inputs": [
        {
          "indexed": true,
          "internalType": "address",
          "name": "previousOwner",
          "type": "address"
        },
        {
          "indexed": true,
          "internalType": "address",
          "name": "newOwner",
          "type": "address"
        }
      ],
      "name": "OwnershipTransferred",
      "type": "event"
    },
    {
      "anonymous": false,
      "inputs": [
        {
          "indexed": true,
          "internalType": "address",
          "name": "contributor",
          "type": "address"
        },
        {
          "indexed": false,
          "internalType": "uint256",
          "name": "amount",
          "type": "uint256"
        }
      ],
      "name": "TokensAllocated",
      "type": "event"
    },
    {
      "anonymous": false,
      "inputs": [
        {
          "indexed": true,
          "internalType": "address",
          "name": "contributor",
          "type": "address"
        },
        {
          "indexed": false,
          "internalType": "uint256",
          "name": "amount",
          "type": "uint256"
        }
      ],
      "name": "TokensClaimed",
      "type": "event"
    },
    {
      "inputs": [
        {
          "internalType": "address[]",
          "name": "_contributors",
          "type": "address[]"
        },
        {
          "internalType": "uint256[]",
          "name": "_tokenAmounts",
          "type": "uint256[]"
        }
      ],
      "name": "allocateTokens",
      "outputs": [],
      "stateMutability": "nonpayable",
      "type": "function"
    },
    {
      "inputs": [
        {
          "internalType": "address",
          "name": "_address",
          "type": "address"
        }
      ],
      "name": "checkAllocation",
      "outputs": [
        {
          "internalType": "uint256",
          "name": "",
          "type": "uint256"
        }
      ],
      "stateMutability": "view",
      "type": "function"
    },
    {
      "inputs": [
        {
          "internalType": "address",
          "name": "_address",
          "type": "address"
        }
      ],
      "name": "checkClaimStatus",
      "outputs": [
        {
          "internalType": "bool",
          "name": "",
          "type": "bool"
        }
      ],
      "stateMutability": "view",
      "type": "function"
    },
    {
      "inputs": [],
      "name": "claimTokens",
      "outputs": [],
      "stateMutability": "nonpayable",
      "type": "function"
    },
    {
      "inputs": [
        {
          "internalType": "address",
          "name": "",
          "type": "address"
        }
      ],
      "name": "contributors",
      "outputs": [
        {
          "internalType": "uint256",
          "name": "allocatedTokens",
          "type": "uint256"
        },
        {
          "internalType": "bool",
          "name": "hasClaimed",
          "type": "bool"
        }
      ],
      "stateMutability": "view",
      "type": "function"
    },
    {
      "inputs": [],
      "name": "owner",
      "outputs": [
        {
          "internalType": "address",
          "name": "",
          "type": "address"
        }
      ],
      "stateMutability": "view",
      "type": "function"
    },
    {
      "inputs": [],
      "name": "releaseDate",
      "outputs": [
        {
          "internalType": "uint256",
          "name": "",
          "type": "uint256"
        }
      ],
      "stateMutability": "view",
      "type": "function"
    },
    {
      "inputs": [],
      "name": "renounceOwnership",
      "outputs": [],
      "stateMutability": "nonpayable",
      "type": "function"
    },
    {
      "inputs": [
        {
          "internalType": "uint256",
          "name": "_newReleaseDate",
          "type": "uint256"
        }
      ],
      "name": "setReleaseDate",
      "outputs": [],
      "stateMutability": "nonpayable",
      "type": "function"
    },
    {
      "inputs": [],
      "name": "tgnToken",
      "outputs": [
        {
          "internalType": "contract IERC20",
          "name": "",
          "type": "address"
        }
      ],
      "stateMutability": "view",
      "type": "function"
    },
    {
      "inputs": [
        {
          "internalType": "address",
          "name": "newOwner",
          "type": "address"
        }
      ],
      "name": "transferOwnership",
      "outputs": [],
      "stateMutability": "nonpayable",
      "type": "function"
    }
  ],
  "bytecode": "0x60806040523480156200001157600080fd5b5060405162001473380380620014738339818101604052810190620000379190620001e0565b620000576200004b620000aa60201b60201c565b620000b260201b60201c565b80600160006101000a81548173ffffffffffffffffffffffffffffffffffffffff021916908373ffffffffffffffffffffffffffffffffffffffff1602179055506365a7b65e6002819055505062000212565b600033905090565b60008060009054906101000a900473ffffffffffffffffffffffffffffffffffffffff169050816000806101000a81548173ffffffffffffffffffffffffffffffffffffffff021916908373ffffffffffffffffffffffffffffffffffffffff1602179055508173ffffffffffffffffffffffffffffffffffffffff168173ffffffffffffffffffffffffffffffffffffffff167f8be0079c531659141344cd1fd0a4f28419497f9722a3daafe3b4186f6b6457e060405160405180910390a35050565b600080fd5b600073ffffffffffffffffffffffffffffffffffffffff82169050919050565b6000620001a8826200017b565b9050919050565b620001ba816200019b565b8114620001c657600080fd5b50565b600081519050620001da81620001af565b92915050565b600060208284031215620001f957620001f862000176565b5b60006200020984828501620001c9565b91505092915050565b61125180620002226000396000f3fe608060405234801561001057600080fd5b50600436106100a95760003560e01c80638da5cb5b116100715780638da5cb5b1461013f5780639d386f611461015d578063a7368afb1461017b578063b9e3e2db14610197578063d64e3871146101b5578063f2fde38b146101e5576100a9565b80631352faec146100ae5780631f6d4942146100ca57806321ffef0c146100fb57806348c54b9d1461012b578063715018a614610135575b600080fd5b6100c860048036038101906100c39190610a27565b610201565b005b6100e460048036038101906100df9190610ab2565b610213565b6040516100f2929190610b09565b60405180910390f35b61011560048036038101906101109190610ab2565b610244565b6040516101229190610b32565b60405180910390f35b610133610290565b005b61013d6104ee565b005b610147610502565b6040516101549190610b5c565b60405180910390f35b61016561052b565b6040516101729190610bd6565b60405180910390f35b61019560048036038101906101909190610cac565b610551565b005b61019f6107bb565b6040516101ac9190610b32565b60405180910390f35b6101cf60048036038101906101ca9190610ab2565b6107c1565b6040516101dc9190610d2d565b60405180910390f35b6101ff60048036038101906101fa9190610ab2565b61081a565b005b61020961089d565b8060028190555050565b60036020528060005260406000206000915090508060000154908060010160009054906101000a900460ff16905082565b6000600360008373ffffffffffffffffffffffffffffffffffffffff1673ffffffffffffffffffffffffffffffffffffffff168152602001908152602001600020600001549050919050565b6002544210156102d5576040517f08c379a00000000000000000000000000000000000000000000000000000000081526004016102cc90610da5565b60405180910390fd5b6000600360003373ffffffffffffffffffffffffffffffffffffffff1673ffffffffffffffffffffffffffffffffffffffff168152602001908152602001600020600001541161035a576040517f08c379a000000000000000000000000000000000000000000000000000000000815260040161035190610e37565b60405180910390fd5b6000600360003373ffffffffffffffffffffffffffffffffffffffff1673ffffffffffffffffffffffffffffffffffffffff1681526020019081526020016000206000015490506001600360003373ffffffffffffffffffffffffffffffffffffffff1673ffffffffffffffffffffffffffffffffffffffff16815260200190815260200160002060010160006101000a81548160ff021916908315150217905550600160009054906101000a900473ffffffffffffffffffffffffffffffffffffffff1673ffffffffffffffffffffffffffffffffffffffff1663a9059cbb33836040518363ffffffff1660e01b8152600401610459929190610e57565b6020604051808303816000875af1158015610478573d6000803e3d6000fd5b505050506040513d601f19601f8201168201806040525081019061049c9190610eac565b503373ffffffffffffffffffffffffffffffffffffffff167f896e034966eaaf1adc54acc0f257056febbd300c9e47182cf761982cf1f5e430826040516104e39190610b32565b60405180910390a250565b6104f661089d565b610500600061091b565b565b60008060009054906101000a900473ffffffffffffffffffffffffffffffffffffffff16905090565b600160009054906101000a900473ffffffffffffffffffffffffffffffffffffffff1681565b61055961089d565b8181905084849050146105a1576040517f08c379a000000000000000000000000000000000000000000000000000000000815260040161059890610f25565b60405180910390fd5b60005b848490508110156107b45760008585838181106105c4576105c3610f45565b5b90506020020160208101906105d99190610ab2565b905060008484848181106105f0576105ef610f45565b5b905060200201359050600073ffffffffffffffffffffffffffffffffffffffff168273ffffffffffffffffffffffffffffffffffffffff1603610668576040517f08c379a000000000000000000000000000000000000000000000000000000000815260040161065f90610fc0565b60405180910390fd5b600360008373ffffffffffffffffffffffffffffffffffffffff1673ffffffffffffffffffffffffffffffffffffffff16815260200190815260200160002060010160009054906101000a900460ff16156106f8576040517f08c379a00000000000000000000000000000000000000000000000000000000081526004016106ef90611052565b60405180910390fd5b80600360008473ffffffffffffffffffffffffffffffffffffffff1673ffffffffffffffffffffffffffffffffffffffff168152602001908152602001600020600001600082825461074a91906110a1565b925050819055508173ffffffffffffffffffffffffffffffffffffffff167f3b87361b8a201c697d51aaa7a509f6dfb3870db9e5c5501d22d3e9fae858f725826040516107979190610b32565b60405180910390a2505080806107ac906110d5565b9150506105a4565b5050505050565b60025481565b6000600360008373ffffffffffffffffffffffffffffffffffffffff1673ffffffffffffffffffffffffffffffffffffffff16815260200190815260200160002060010160009054906101000a900460ff169050919050565b61082261089d565b600073ffffffffffffffffffffffffffffffffffffffff168173ffffffffffffffffffffffffffffffffffffffff1603610891576040517f08c379a00000000000000000000000000000000000000000000000000000000081526004016108889061118f565b60405180910390fd5b61089a8161091b565b50565b6108a56109df565b73ffffffffffffffffffffffffffffffffffffffff166108c3610502565b73ffffffffffffffffffffffffffffffffffffffff1614610919576040517f08c379a0000000000000000000000000000000000000000000000000000000008152600401610910906111fb565b60405180910390fd5b565b60008060009054906101000a900473ffffffffffffffffffffffffffffffffffffffff169050816000806101000a81548173ffffffffffffffffffffffffffffffffffffffff021916908373ffffffffffffffffffffffffffffffffffffffff1602179055508173ffffffffffffffffffffffffffffffffffffffff168173ffffffffffffffffffffffffffffffffffffffff167f8be0079c531659141344cd1fd0a4f28419497f9722a3daafe3b4186f6b6457e060405160405180910390a35050565b600033905090565b600080fd5b600080fd5b6000819050919050565b610a04816109f1565b8114610a0f57600080fd5b50565b600081359050610a21816109fb565b92915050565b600060208284031215610a3d57610a3c6109e7565b5b6000610a4b84828501610a12565b91505092915050565b600073ffffffffffffffffffffffffffffffffffffffff82169050919050565b6000610a7f82610a54565b9050919050565b610a8f81610a74565b8114610a9a57600080fd5b50565b600081359050610aac81610a86565b92915050565b600060208284031215610ac857610ac76109e7565b5b6000610ad684828501610a9d565b91505092915050565b610ae8816109f1565b82525050565b60008115159050919050565b610b0381610aee565b82525050565b6000604082019050610b1e6000830185610adf565b610b2b6020830184610afa565b9392505050565b6000602082019050610b476000830184610adf565b92915050565b610b5681610a74565b82525050565b6000602082019050610b716000830184610b4d565b92915050565b6000819050919050565b6000610b9c610b97610b9284610a54565b610b77565b610a54565b9050919050565b6000610bae82610b81565b9050919050565b6000610bc082610ba3565b9050919050565b610bd081610bb5565b82525050565b6000602082019050610beb6000830184610bc7565b92915050565b600080fd5b600080fd5b600080fd5b60008083601f840112610c1657610c15610bf1565b5b8235905067ffffffffffffffff811115610c3357610c32610bf6565b5b602083019150836020820283011115610c4f57610c4e610bfb565b5b9250929050565b60008083601f840112610c6c57610c6b610bf1565b5b8235905067ffffffffffffffff811115610c8957610c88610bf6565b5b602083019150836020820283011115610ca557610ca4610bfb565b5b9250929050565b60008060008060408587031215610cc657610cc56109e7565b5b600085013567ffffffffffffffff811115610ce457610ce36109ec565b5b610cf087828801610c00565b9450945050602085013567ffffffffffffffff811115610d1357610d126109ec565b5b610d1f87828801610c56565b925092505092959194509250565b6000602082019050610d426000830184610afa565b92915050565b600082825260208201905092915050565b7f546f6b656e732063616e277420626520636c61696d6564207965740000000000600082015250565b6000610d8f601b83610d48565b9150610d9a82610d59565b602082019050919050565b60006020820190508181036000830152610dbe81610d82565b9050919050565b7f4e6f20746f6b656e7320616c6c6f636174656420746f2074686973206164647260008201527f6573730000000000000000000000000000000000000000000000000000000000602082015250565b6000610e21602383610d48565b9150610e2c82610dc5565b604082019050919050565b60006020820190508181036000830152610e5081610e14565b9050919050565b6000604082019050610e6c6000830185610b4d565b610e796020830184610adf565b9392505050565b610e8981610aee565b8114610e9457600080fd5b50565b600081519050610ea681610e80565b92915050565b600060208284031215610ec257610ec16109e7565b5b6000610ed084828501610e97565b91505092915050565b7f417272617973206c656e677468206d69736d6174636800000000000000000000600082015250565b6000610f0f601683610d48565b9150610f1a82610ed9565b602082019050919050565b60006020820190508181036000830152610f3e81610f02565b9050919050565b7f4e487b7100000000000000000000000000000000000000000000000000000000600052603260045260246000fd5b7f496e76616c696420636f6e7472696275746f7220616464726573730000000000600082015250565b6000610faa601b83610d48565b9150610fb582610f74565b602082019050919050565b60006020820190508181036000830152610fd981610f9d565b9050919050565b7f546f6b656e7320616c726561647920636c61696d656420666f7220746869732060008201527f636f6e7472696275746f72000000000000000000000000000000000000000000602082015250565b600061103c602b83610d48565b915061104782610fe0565b604082019050919050565b6000602082019050818103600083015261106b8161102f565b9050919050565b7f4e487b7100000000000000000000000000000000000000000000000000000000600052601160045260246000fd5b60006110ac826109f1565b91506110b7836109f1565b92508282019050808211156110cf576110ce611072565b5b92915050565b60006110e0826109f1565b91507fffffffffffffffffffffffffffffffffffffffffffffffffffffffffffffffff820361111257611111611072565b5b600182019050919050565b7f4f776e61626c653a206e6577206f776e657220697320746865207a65726f206160008201527f6464726573730000000000000000000000000000000000000000000000000000602082015250565b6000611179602683610d48565b91506111848261111d565b604082019050919050565b600060208201905081810360008301526111a88161116c565b9050919050565b7f4f776e61626c653a2063616c6c6572206973206e6f7420746865206f776e6572600082015250565b60006111e5602083610d48565b91506111f0826111af565b602082019050919050565b60006020820190508181036000830152611214816111d8565b905091905056fea26469706673582212205aaf6b8bbfdac273c2191c1d484fcfa1a6efb3fe2a3b33fe9f384c02e4e3026764736f6c63430008110033",
  "linkReferences": {},
  "deployedLinkReferences": {}
}