{
  "_format": "hh-sol-artifact-1",
  "contractName": "MgrowMinter",
  "sourceName": "contracts/TGNDAO.sol",
  "abi": [
    {
      "inputs": [
        {
          "internalType": "contract IVotes",
          "name": "_token",
          "type": "address"
        },
        {
          "internalType": "uint256",
          "name": "_quorumPercentage",
          "type": "uint256"
        },
        {
          "internalType": "uint256",
          "name": "_votingPeriod",
          "type": "uint256"
        },
        {
          "internalType": "uint256",
          "name": "_votingDelay",
          "type": "uint256"
        }
      ],
      "stateMutability": "nonpayable",
      "type": "constructor"
    },
    {
      "inputs": [],
      "name": "Empty",
      "type": "error"
    },
    {
      "anonymous": false,
      "inputs": [
        {
          "indexed": false,
          "internalType": "uint256",
          "name": "proposalId",
          "type": "uint256"
        }
      ],
      "name": "ProposalCanceled",
      "type": "event"
    },
    {
      "anonymous": false,
      "inputs": [
        {
          "indexed": false,
          "internalType": "uint256",
          "name": "proposalId",
          "type": "uint256"
        },
        {
          "indexed": false,
          "internalType": "address",
          "name": "proposer",
          "type": "address"
        },
        {
          "indexed": false,
          "internalType": "address[]",
          "name": "targets",
          "type": "address[]"
        },
        {
          "indexed": false,
          "internalType": "uint256[]",
          "name": "values",
          "type": "uint256[]"
        },
        {
          "indexed": false,
          "internalType": "string[]",
          "name": "signatures",
          "type": "string[]"
        },
        {
          "indexed": false,
          "internalType": "bytes[]",
          "name": "calldatas",
          "type": "bytes[]"
        },
        {
          "indexed": false,
          "internalType": "uint256",
          "name": "startBlock",
          "type": "uint256"
        },
        {
          "indexed": false,
          "internalType": "uint256",
          "name": "endBlock",
          "type": "uint256"
        },
        {
          "indexed": false,
          "internalType": "string",
          "name": "description",
          "type": "string"
        }
      ],
      "name": "ProposalCreated",
      "type": "event"
    },
    {
      "anonymous": false,
      "inputs": [
        {
          "indexed": false,
          "internalType": "uint256",
          "name": "proposalId",
          "type": "uint256"
        }
      ],
      "name": "ProposalExecuted",
      "type": "event"
    },
    {
      "anonymous": false,
      "inputs": [
        {
          "indexed": false,
          "internalType": "uint256",
          "name": "oldProposalThreshold",
          "type": "uint256"
        },
        {
          "indexed": false,
          "internalType": "uint256",
          "name": "newProposalThreshold",
          "type": "uint256"
        }
      ],
      "name": "ProposalThresholdSet",
      "type": "event"
    },
    {
      "anonymous": false,
      "inputs": [
        {
          "indexed": false,
          "internalType": "uint256",
          "name": "oldQuorumNumerator",
          "type": "uint256"
        },
        {
          "indexed": false,
          "internalType": "uint256",
          "name": "newQuorumNumerator",
          "type": "uint256"
        }
      ],
      "name": "QuorumNumeratorUpdated",
      "type": "event"
    },
    {
      "anonymous": false,
      "inputs": [
        {
          "indexed": true,
          "internalType": "address",
          "name": "voter",
          "type": "address"
        },
        {
          "indexed": false,
          "internalType": "uint256",
          "name": "proposalId",
          "type": "uint256"
        },
        {
          "indexed": false,
          "internalType": "uint8",
          "name": "support",
          "type": "uint8"
        },
        {
          "indexed": false,
          "internalType": "uint256",
          "name": "weight",
          "type": "uint256"
        },
        {
          "indexed": false,
          "internalType": "string",
          "name": "reason",
          "type": "string"
        }
      ],
      "name": "VoteCast",
      "type": "event"
    },
    {
      "anonymous": false,
      "inputs": [
        {
          "indexed": true,
          "internalType": "address",
          "name": "voter",
          "type": "address"
        },
        {
          "indexed": false,
          "internalType": "uint256",
          "name": "proposalId",
          "type": "uint256"
        },
        {
          "indexed": false,
          "internalType": "uint8",
          "name": "support",
          "type": "uint8"
        },
        {
          "indexed": false,
          "internalType": "uint256",
          "name": "weight",
          "type": "uint256"
        },
        {
          "indexed": false,
          "internalType": "string",
          "name": "reason",
          "type": "string"
        },
        {
          "indexed": false,
          "internalType": "bytes",
          "name": "params",
          "type": "bytes"
        }
      ],
      "name": "VoteCastWithParams",
      "type": "event"
    },
    {
      "anonymous": false,
      "inputs": [
        {
          "indexed": false,
          "internalType": "uint256",
          "name": "oldVotingDelay",
          "type": "uint256"
        },
        {
          "indexed": false,
          "internalType": "uint256",
          "name": "newVotingDelay",
          "type": "uint256"
        }
      ],
      "name": "VotingDelaySet",
      "type": "event"
    },
    {
      "anonymous": false,
      "inputs": [
        {
          "indexed": false,
          "internalType": "uint256",
          "name": "oldVotingPeriod",
          "type": "uint256"
        },
        {
          "indexed": false,
          "internalType": "uint256",
          "name": "newVotingPeriod",
          "type": "uint256"
        }
      ],
      "name": "VotingPeriodSet",
      "type": "event"
    },
    {
      "inputs": [],
      "name": "BALLOT_TYPEHASH",
      "outputs": [
        {
          "internalType": "bytes32",
          "name": "",
          "type": "bytes32"
        }
      ],
      "stateMutability": "view",
      "type": "function"
    },
    {
      "inputs": [],
      "name": "COUNTING_MODE",
      "outputs": [
        {
          "internalType": "string",
          "name": "",
          "type": "string"
        }
      ],
      "stateMutability": "pure",
      "type": "function"
    },
    {
      "inputs": [],
      "name": "EXTENDED_BALLOT_TYPEHASH",
      "outputs": [
        {
          "internalType": "bytes32",
          "name": "",
          "type": "bytes32"
        }
      ],
      "stateMutability": "view",
      "type": "function"
    },
    {
      "inputs": [
        {
          "internalType": "uint256",
          "name": "proposalId",
          "type": "uint256"
        },
        {
          "internalType": "uint8",
          "name": "support",
          "type": "uint8"
        }
      ],
      "name": "castVote",
      "outputs": [
        {
          "internalType": "uint256",
          "name": "",
          "type": "uint256"
        }
      ],
      "stateMutability": "nonpayable",
      "type": "function"
    },
    {
      "inputs": [
        {
          "internalType": "uint256",
          "name": "proposalId",
          "type": "uint256"
        },
        {
          "internalType": "uint8",
          "name": "support",
          "type": "uint8"
        },
        {
          "internalType": "uint8",
          "name": "v",
          "type": "uint8"
        },
        {
          "internalType": "bytes32",
          "name": "r",
          "type": "bytes32"
        },
        {
          "internalType": "bytes32",
          "name": "s",
          "type": "bytes32"
        }
      ],
      "name": "castVoteBySig",
      "outputs": [
        {
          "internalType": "uint256",
          "name": "",
          "type": "uint256"
        }
      ],
      "stateMutability": "nonpayable",
      "type": "function"
    },
    {
      "inputs": [
        {
          "internalType": "uint256",
          "name": "proposalId",
          "type": "uint256"
        },
        {
          "internalType": "uint8",
          "name": "support",
          "type": "uint8"
        },
        {
          "internalType": "string",
          "name": "reason",
          "type": "string"
        }
      ],
      "name": "castVoteWithReason",
      "outputs": [
        {
          "internalType": "uint256",
          "name": "",
          "type": "uint256"
        }
      ],
      "stateMutability": "nonpayable",
      "type": "function"
    },
    {
      "inputs": [
        {
          "internalType": "uint256",
          "name": "proposalId",
          "type": "uint256"
        },
        {
          "internalType": "uint8",
          "name": "support",
          "type": "uint8"
        },
        {
          "internalType": "string",
          "name": "reason",
          "type": "string"
        },
        {
          "internalType": "bytes",
          "name": "params",
          "type": "bytes"
        }
      ],
      "name": "castVoteWithReasonAndParams",
      "outputs": [
        {
          "internalType": "uint256",
          "name": "",
          "type": "uint256"
        }
      ],
      "stateMutability": "nonpayable",
      "type": "function"
    },
    {
      "inputs": [
        {
          "internalType": "uint256",
          "name": "proposalId",
          "type": "uint256"
        },
        {
          "internalType": "uint8",
          "name": "support",
          "type": "uint8"
        },
        {
          "internalType": "string",
          "name": "reason",
          "type": "string"
        },
        {
          "internalType": "bytes",
          "name": "params",
          "type": "bytes"
        },
        {
          "internalType": "uint8",
          "name": "v",
          "type": "uint8"
        },
        {
          "internalType": "bytes32",
          "name": "r",
          "type": "bytes32"
        },
        {
          "internalType": "bytes32",
          "name": "s",
          "type": "bytes32"
        }
      ],
      "name": "castVoteWithReasonAndParamsBySig",
      "outputs": [
        {
          "internalType": "uint256",
          "name": "",
          "type": "uint256"
        }
      ],
      "stateMutability": "nonpayable",
      "type": "function"
    },
    {
      "inputs": [
        {
          "internalType": "address[]",
          "name": "targets",
          "type": "address[]"
        },
        {
          "internalType": "uint256[]",
          "name": "values",
          "type": "uint256[]"
        },
        {
          "internalType": "bytes[]",
          "name": "calldatas",
          "type": "bytes[]"
        },
        {
          "internalType": "bytes32",
          "name": "descriptionHash",
          "type": "bytes32"
        }
      ],
      "name": "execute",
      "outputs": [
        {
          "internalType": "uint256",
          "name": "",
          "type": "uint256"
        }
      ],
      "stateMutability": "payable",
      "type": "function"
    },
    {
      "inputs": [
        {
          "internalType": "address",
          "name": "account",
          "type": "address"
        },
        {
          "internalType": "uint256",
          "name": "blockNumber",
          "type": "uint256"
        }
      ],
      "name": "getVotes",
      "outputs": [
        {
          "internalType": "uint256",
          "name": "",
          "type": "uint256"
        }
      ],
      "stateMutability": "view",
      "type": "function"
    },
    {
      "inputs": [
        {
          "internalType": "address",
          "name": "account",
          "type": "address"
        },
        {
          "internalType": "uint256",
          "name": "blockNumber",
          "type": "uint256"
        },
        {
          "internalType": "bytes",
          "name": "params",
          "type": "bytes"
        }
      ],
      "name": "getVotesWithParams",
      "outputs": [
        {
          "internalType": "uint256",
          "name": "",
          "type": "uint256"
        }
      ],
      "stateMutability": "view",
      "type": "function"
    },
    {
      "inputs": [
        {
          "internalType": "uint256",
          "name": "proposalId",
          "type": "uint256"
        },
        {
          "internalType": "address",
          "name": "account",
          "type": "address"
        }
      ],
      "name": "hasVoted",
      "outputs": [
        {
          "internalType": "bool",
          "name": "",
          "type": "bool"
        }
      ],
      "stateMutability": "view",
      "type": "function"
    },
    {
      "inputs": [
        {
          "internalType": "address[]",
          "name": "targets",
          "type": "address[]"
        },
        {
          "internalType": "uint256[]",
          "name": "values",
          "type": "uint256[]"
        },
        {
          "internalType": "bytes[]",
          "name": "calldatas",
          "type": "bytes[]"
        },
        {
          "internalType": "bytes32",
          "name": "descriptionHash",
          "type": "bytes32"
        }
      ],
      "name": "hashProposal",
      "outputs": [
        {
          "internalType": "uint256",
          "name": "",
          "type": "uint256"
        }
      ],
      "stateMutability": "pure",
      "type": "function"
    },
    {
      "inputs": [],
      "name": "name",
      "outputs": [
        {
          "internalType": "string",
          "name": "",
          "type": "string"
        }
      ],
      "stateMutability": "view",
      "type": "function"
    },
    {
      "inputs": [
        {
          "internalType": "address",
          "name": "",
          "type": "address"
        },
        {
          "internalType": "address",
          "name": "",
          "type": "address"
        },
        {
          "internalType": "uint256[]",
          "name": "",
          "type": "uint256[]"
        },
        {
          "internalType": "uint256[]",
          "name": "",
          "type": "uint256[]"
        },
        {
          "internalType": "bytes",
          "name": "",
          "type": "bytes"
        }
      ],
      "name": "onERC1155BatchReceived",
      "outputs": [
        {
          "internalType": "bytes4",
          "name": "",
          "type": "bytes4"
        }
      ],
      "stateMutability": "nonpayable",
      "type": "function"
    },
    {
      "inputs": [
        {
          "internalType": "address",
          "name": "",
          "type": "address"
        },
        {
          "internalType": "address",
          "name": "",
          "type": "address"
        },
        {
          "internalType": "uint256",
          "name": "",
          "type": "uint256"
        },
        {
          "internalType": "uint256",
          "name": "",
          "type": "uint256"
        },
        {
          "internalType": "bytes",
          "name": "",
          "type": "bytes"
        }
      ],
      "name": "onERC1155Received",
      "outputs": [
        {
          "internalType": "bytes4",
          "name": "",
          "type": "bytes4"
        }
      ],
      "stateMutability": "nonpayable",
      "type": "function"
    },
    {
      "inputs": [
        {
          "internalType": "address",
          "name": "",
          "type": "address"
        },
        {
          "internalType": "address",
          "name": "",
          "type": "address"
        },
        {
          "internalType": "uint256",
          "name": "",
          "type": "uint256"
        },
        {
          "internalType": "bytes",
          "name": "",
          "type": "bytes"
        }
      ],
      "name": "onERC721Received",
      "outputs": [
        {
          "internalType": "bytes4",
          "name": "",
          "type": "bytes4"
        }
      ],
      "stateMutability": "nonpayable",
      "type": "function"
    },
    {
      "inputs": [
        {
          "internalType": "uint256",
          "name": "proposalId",
          "type": "uint256"
        }
      ],
      "name": "proposalDeadline",
      "outputs": [
        {
          "internalType": "uint256",
          "name": "",
          "type": "uint256"
        }
      ],
      "stateMutability": "view",
      "type": "function"
    },
    {
      "inputs": [
        {
          "internalType": "uint256",
          "name": "proposalId",
          "type": "uint256"
        }
      ],
      "name": "proposalSnapshot",
      "outputs": [
        {
          "internalType": "uint256",
          "name": "",
          "type": "uint256"
        }
      ],
      "stateMutability": "view",
      "type": "function"
    },
    {
      "inputs": [],
      "name": "proposalThreshold",
      "outputs": [
        {
          "internalType": "uint256",
          "name": "",
          "type": "uint256"
        }
      ],
      "stateMutability": "view",
      "type": "function"
    },
    {
      "inputs": [
        {
          "internalType": "uint256",
          "name": "proposalId",
          "type": "uint256"
        }
      ],
      "name": "proposalVotes",
      "outputs": [
        {
          "internalType": "uint256",
          "name": "againstVotes",
          "type": "uint256"
        },
        {
          "internalType": "uint256",
          "name": "forVotes",
          "type": "uint256"
        },
        {
          "internalType": "uint256",
          "name": "abstainVotes",
          "type": "uint256"
        }
      ],
      "stateMutability": "view",
      "type": "function"
    },
    {
      "inputs": [
        {
          "internalType": "address[]",
          "name": "targets",
          "type": "address[]"
        },
        {
          "internalType": "uint256[]",
          "name": "values",
          "type": "uint256[]"
        },
        {
          "internalType": "bytes[]",
          "name": "calldatas",
          "type": "bytes[]"
        },
        {
          "internalType": "string",
          "name": "description",
          "type": "string"
        }
      ],
      "name": "propose",
      "outputs": [
        {
          "internalType": "uint256",
          "name": "",
          "type": "uint256"
        }
      ],
      "stateMutability": "nonpayable",
      "type": "function"
    },
    {
      "inputs": [
        {
          "internalType": "uint256",
          "name": "blockNumber",
          "type": "uint256"
        }
      ],
      "name": "quorum",
      "outputs": [
        {
          "internalType": "uint256",
          "name": "",
          "type": "uint256"
        }
      ],
      "stateMutability": "view",
      "type": "function"
    },
    {
      "inputs": [],
      "name": "quorumDenominator",
      "outputs": [
        {
          "internalType": "uint256",
          "name": "",
          "type": "uint256"
        }
      ],
      "stateMutability": "view",
      "type": "function"
    },
    {
      "inputs": [
        {
          "internalType": "uint256",
          "name": "blockNumber",
          "type": "uint256"
        }
      ],
      "name": "quorumNumerator",
      "outputs": [
        {
          "internalType": "uint256",
          "name": "",
          "type": "uint256"
        }
      ],
      "stateMutability": "view",
      "type": "function"
    },
    {
      "inputs": [],
      "name": "quorumNumerator",
      "outputs": [
        {
          "internalType": "uint256",
          "name": "",
          "type": "uint256"
        }
      ],
      "stateMutability": "view",
      "type": "function"
    },
    {
      "inputs": [
        {
          "internalType": "address",
          "name": "target",
          "type": "address"
        },
        {
          "internalType": "uint256",
          "name": "value",
          "type": "uint256"
        },
        {
          "internalType": "bytes",
          "name": "data",
          "type": "bytes"
        }
      ],
      "name": "relay",
      "outputs": [],
      "stateMutability": "payable",
      "type": "function"
    },
    {
      "inputs": [
        {
          "internalType": "uint256",
          "name": "newProposalThreshold",
          "type": "uint256"
        }
      ],
      "name": "setProposalThreshold",
      "outputs": [],
      "stateMutability": "nonpayable",
      "type": "function"
    },
    {
      "inputs": [
        {
          "internalType": "uint256",
          "name": "newVotingDelay",
          "type": "uint256"
        }
      ],
      "name": "setVotingDelay",
      "outputs": [],
      "stateMutability": "nonpayable",
      "type": "function"
    },
    {
      "inputs": [
        {
          "internalType": "uint256",
          "name": "newVotingPeriod",
          "type": "uint256"
        }
      ],
      "name": "setVotingPeriod",
      "outputs": [],
      "stateMutability": "nonpayable",
      "type": "function"
    },
    {
      "inputs": [
        {
          "internalType": "uint256",
          "name": "proposalId",
          "type": "uint256"
        }
      ],
      "name": "state",
      "outputs": [
        {
          "internalType": "enum IGovernor.ProposalState",
          "name": "",
          "type": "uint8"
        }
      ],
      "stateMutability": "view",
      "type": "function"
    },
    {
      "inputs": [
        {
          "internalType": "bytes4",
          "name": "interfaceId",
          "type": "bytes4"
        }
      ],
      "name": "supportsInterface",
      "outputs": [
        {
          "internalType": "bool",
          "name": "",
          "type": "bool"
        }
      ],
      "stateMutability": "view",
      "type": "function"
    },
    {
      "inputs": [],
      "name": "token",
      "outputs": [
        {
          "internalType": "contract IVotes",
          "name": "",
          "type": "address"
        }
      ],
      "stateMutability": "view",
      "type": "function"
    },
    {
      "inputs": [
        {
          "internalType": "uint256",
          "name": "newQuorumNumerator",
          "type": "uint256"
        }
      ],
      "name": "updateQuorumNumerator",
      "outputs": [],
      "stateMutability": "nonpayable",
      "type": "function"
    },
    {
      "inputs": [],
      "name": "version",
      "outputs": [
        {
          "internalType": "string",
          "name": "",
          "type": "string"
        }
      ],
      "stateMutability": "view",
      "type": "function"
    },
    {
      "inputs": [],
      "name": "votingDelay",
      "outputs": [
        {
          "internalType": "uint256",
          "name": "",
          "type": "uint256"
        }
      ],
      "stateMutability": "view",
      "type": "function"
    },
    {
      "inputs": [],
      "name": "votingPeriod",
      "outputs": [
        {
          "internalType": "uint256",
          "name": "",
          "type": "uint256"
        }
      ],
      "stateMutability": "view",
      "type": "function"
    },
    {
      "stateMutability": "payable",
      "type": "receive"
    }
  ],
  "bytecode": "0x6101606040523480156200001257600080fd5b50604051620073a3380380620073a3833981810160405281019062000038919062000bdd565b8284828460006040518060400160405280601081526020017f476f7665726e6f72436f6e7472616374000000000000000000000000000000008152508062000085620001d260201b60201c565b60008280519060200120905060008280519060200120905060007f8b73c3c69bb8fe3d512ecc4cf759cc79239f7b179b0ffacaa9a75d522b39400f90508260e081815250508161010081815250504660a08181525050620000ee8184846200020f60201b60201c565b608081815250503073ffffffffffffffffffffffffffffffffffffffff1660c08173ffffffffffffffffffffffffffffffffffffffff16815250508061012081815250505050505050806000908162000148919062000ebf565b50506200015b836200024b60201b60201c565b6200016c826200029260201b60201c565b6200017d816200031f60201b60201c565b5050508073ffffffffffffffffffffffffffffffffffffffff166101408173ffffffffffffffffffffffffffffffffffffffff168152505050620001c7816200036660201b60201c565b5050505050620013e0565b60606040518060400160405280600181526020017f3100000000000000000000000000000000000000000000000000000000000000815250905090565b600083838346306040516020016200022c95949392919062000fe3565b6040516020818303038152906040528051906020012090509392505050565b7fc565b045403dc03c2eea82b81a0465edad9e2e7fc4d97e11421c209da93d7a93600454826040516200028092919062001040565b60405180910390a18060048190555050565b60008111620002d8576040517f08c379a0000000000000000000000000000000000000000000000000000000008152600401620002cf90620010f4565b60405180910390fd5b7f7e3f7f0708a84de9203036abaa450dccc85ad5ff52f78c170f3edb55cf5e8828600554826040516200030d92919062001040565b60405180910390a18060058190555050565b7fccb45da8d5717e6c4544694297c4ba5cf151d455c9bb0ed4fc7a38411bc05461600654826040516200035492919062001040565b60405180910390a18060068190555050565b620003766200054560201b60201c565b811115620003bb576040517f08c379a0000000000000000000000000000000000000000000000000000000008152600401620003b290620011b2565b60405180910390fd5b6000620003cd6200054e60201b60201c565b905060008114158015620003e957506000600960000180549050145b15620004e95760096000016040518060400160405280600063ffffffff1681526020016200042284620005a460201b620018dd1760201c565b7bffffffffffffffffffffffffffffffffffffffffffffffffffffffff168152509080600181540180825580915050600190039060005260206000200160009091909190915060008201518160000160006101000a81548163ffffffff021916908363ffffffff16021790555060208201518160000160046101000a8154817bffffffffffffffffffffffffffffffffffffffffffffffffffffffff02191690837bffffffffffffffffffffffffffffffffffffffffffffffffffffffff16021790555050505b620005048260096200061260201b620019481790919060201c565b50507f0553476bf02ef2726e8ce5ced78d63e26e602e4a2257b1f559418e24b463399781836040516200053992919062001040565b60405180910390a15050565b60006064905090565b600080600960000180549050146200059b57620005776009620006a260201b620019b61760201c565b7bffffffffffffffffffffffffffffffffffffffffffffffffffffffff166200059f565b6008545b905090565b60007bffffffffffffffffffffffffffffffffffffffffffffffffffffffff80168211156200060a576040517f08c379a000000000000000000000000000000000000000000000000000000000815260040162000601906200124a565b60405180910390fd5b819050919050565b600080620006558460000162000633436200071860201b62001a201760201c565b6200064986620005a460201b620018dd1760201c565b6200076e60201b60201c565b817bffffffffffffffffffffffffffffffffffffffffffffffffffffffff169150807bffffffffffffffffffffffffffffffffffffffffffffffffffffffff169050915091509250929050565b60008082600001805490509050600081146200070d57620006db83600001600183620006cf91906200129b565b62000b0f60201b60201c565b60000160049054906101000a90047bffffffffffffffffffffffffffffffffffffffffffffffffffffffff1662000710565b60005b915050919050565b600063ffffffff801682111562000766576040517f08c379a00000000000000000000000000000000000000000000000000000000081526004016200075d906200134c565b60405180910390fd5b819050919050565b600080600085805490509050600081111562000a1f576000620007a6876001846200079a91906200129b565b62000b0f60201b60201c565b6040518060400160405290816000820160009054906101000a900463ffffffff1663ffffffff1663ffffffff1681526020016000820160049054906101000a90047bffffffffffffffffffffffffffffffffffffffffffffffffffffffff167bffffffffffffffffffffffffffffffffffffffffffffffffffffffff167bffffffffffffffffffffffffffffffffffffffffffffffffffffffff168152505090508563ffffffff16816000015163ffffffff1611156200089d576040517f08c379a00000000000000000000000000000000000000000000000000000000081526004016200089490620013be565b60405180910390fd5b8563ffffffff16816000015163ffffffff16036200092d5784620008d688600185620008ca91906200129b565b62000b0f60201b60201c565b60000160046101000a8154817bffffffffffffffffffffffffffffffffffffffffffffffffffffffff02191690837bffffffffffffffffffffffffffffffffffffffffffffffffffffffff16021790555062000a0d565b8660405180604001604052808863ffffffff168152602001877bffffffffffffffffffffffffffffffffffffffffffffffffffffffff168152509080600181540180825580915050600190039060005260206000200160009091909190915060008201518160000160006101000a81548163ffffffff021916908363ffffffff16021790555060208201518160000160046101000a8154817bffffffffffffffffffffffffffffffffffffffffffffffffffffffff02191690837bffffffffffffffffffffffffffffffffffffffffffffffffffffffff16021790555050505b80602001518593509350505062000b07565b8560405180604001604052808763ffffffff168152602001867bffffffffffffffffffffffffffffffffffffffffffffffffffffffff168152509080600181540180825580915050600190039060005260206000200160009091909190915060008201518160000160006101000a81548163ffffffff021916908363ffffffff16021790555060208201518160000160046101000a8154817bffffffffffffffffffffffffffffffffffffffffffffffffffffffff02191690837bffffffffffffffffffffffffffffffffffffffffffffffffffffffff160217905550505060008492509250505b935093915050565b60008260005281602060002001905092915050565b600080fd5b600073ffffffffffffffffffffffffffffffffffffffff82169050919050565b600062000b568262000b29565b9050919050565b600062000b6a8262000b49565b9050919050565b62000b7c8162000b5d565b811462000b8857600080fd5b50565b60008151905062000b9c8162000b71565b92915050565b6000819050919050565b62000bb78162000ba2565b811462000bc357600080fd5b50565b60008151905062000bd78162000bac565b92915050565b6000806000806080858703121562000bfa5762000bf962000b24565b5b600062000c0a8782880162000b8b565b945050602062000c1d8782880162000bc6565b935050604062000c308782880162000bc6565b925050606062000c438782880162000bc6565b91505092959194509250565b600081519050919050565b7f4e487b7100000000000000000000000000000000000000000000000000000000600052604160045260246000fd5b7f4e487b7100000000000000000000000000000000000000000000000000000000600052602260045260246000fd5b6000600282049050600182168062000cd157607f821691505b60208210810362000ce75762000ce662000c89565b5b50919050565b60008190508160005260206000209050919050565b60006020601f8301049050919050565b600082821b905092915050565b60006008830262000d517fffffffffffffffffffffffffffffffffffffffffffffffffffffffffffffffff8262000d12565b62000d5d868362000d12565b95508019841693508086168417925050509392505050565b6000819050919050565b600062000da062000d9a62000d948462000ba2565b62000d75565b62000ba2565b9050919050565b6000819050919050565b62000dbc8362000d7f565b62000dd462000dcb8262000da7565b84845462000d1f565b825550505050565b600090565b62000deb62000ddc565b62000df881848462000db1565b505050565b5b8181101562000e205762000e1460008262000de1565b60018101905062000dfe565b5050565b601f82111562000e6f5762000e398162000ced565b62000e448462000d02565b8101602085101562000e54578190505b62000e6c62000e638562000d02565b83018262000dfd565b50505b505050565b600082821c905092915050565b600062000e946000198460080262000e74565b1980831691505092915050565b600062000eaf838362000e81565b9150826002028217905092915050565b62000eca8262000c4f565b67ffffffffffffffff81111562000ee65762000ee562000c5a565b5b62000ef2825462000cb8565b62000eff82828562000e24565b600060209050601f83116001811462000f37576000841562000f22578287015190505b62000f2e858262000ea1565b86555062000f9e565b601f19841662000f478662000ced565b60005b8281101562000f715784890151825560018201915060208501945060208101905062000f4a565b8683101562000f91578489015162000f8d601f89168262000e81565b8355505b6001600288020188555050505b505050505050565b6000819050919050565b62000fbb8162000fa6565b82525050565b62000fcc8162000ba2565b82525050565b62000fdd8162000b49565b82525050565b600060a08201905062000ffa600083018862000fb0565b62001009602083018762000fb0565b62001018604083018662000fb0565b62001027606083018562000fc1565b62001036608083018462000fd2565b9695505050505050565b600060408201905062001057600083018562000fc1565b62001066602083018462000fc1565b9392505050565b600082825260208201905092915050565b7f476f7665726e6f7253657474696e67733a20766f74696e6720706572696f642060008201527f746f6f206c6f7700000000000000000000000000000000000000000000000000602082015250565b6000620010dc6027836200106d565b9150620010e9826200107e565b604082019050919050565b600060208201905081810360008301526200110f81620010cd565b9050919050565b7f476f7665726e6f72566f74657351756f72756d4672616374696f6e3a2071756f60008201527f72756d4e756d657261746f72206f7665722071756f72756d44656e6f6d696e6160208201527f746f720000000000000000000000000000000000000000000000000000000000604082015250565b60006200119a6043836200106d565b9150620011a78262001116565b606082019050919050565b60006020820190508181036000830152620011cd816200118b565b9050919050565b7f53616665436173743a2076616c756520646f65736e27742066697420696e203260008201527f3234206269747300000000000000000000000000000000000000000000000000602082015250565b6000620012326027836200106d565b91506200123f82620011d4565b604082019050919050565b60006020820190508181036000830152620012658162001223565b9050919050565b7f4e487b7100000000000000000000000000000000000000000000000000000000600052601160045260246000fd5b6000620012a88262000ba2565b9150620012b58362000ba2565b9250828203905081811115620012d057620012cf6200126c565b5b92915050565b7f53616665436173743a2076616c756520646f65736e27742066697420696e203360008201527f3220626974730000000000000000000000000000000000000000000000000000602082015250565b6000620013346026836200106d565b91506200134182620012d6565b604082019050919050565b60006020820190508181036000830152620013678162001325565b9050919050565b7f436865636b706f696e743a20696e76616c6964206b6579000000000000000000600082015250565b6000620013a66017836200106d565b9150620013b3826200136e565b602082019050919050565b60006020820190508181036000830152620013d98162001397565b9050919050565b60805160a05160c05160e051610100516101205161014051615f5a62001449600039600081816118bb0152818161276d015261293a01526000612ea001526000612ee201526000612ec101526000612df601526000612e4c01526000612e750152615f5a6000f3fe60806040526004361061021e5760003560e01c806370b0f66011610123578063c28bc2fa116100ab578063eb9019d41161006f578063eb9019d4146108ed578063ece40cc11461092a578063f23a6e6114610953578063f8ce560a14610990578063fc0c546a146109cd57610264565b8063c28bc2fa14610815578063c59057e414610831578063dd4e2ba51461086e578063deaaa7cc14610899578063ea0217cf146108c457610264565b80639a802a6d116100f25780639a802a6d14610708578063a7713a7014610745578063b58131b014610770578063bc197c811461079b578063c01f9e37146107d857610264565b806370b0f6601461063a5780637b3c71d3146106635780637d5e81e2146106a057806397c3d334146106dd57610264565b80633932abb1116101a6578063544ffc9c11610175578063544ffc9c1461051957806354fd4d501461055857806356781388146105835780635f398a14146105c057806360c4247f146105fd57610264565b80633932abb1146104375780633bccf4fd146104625780633e4f49e61461049f57806343859632146104dc57610264565b806306fdde03116101ed57806306fdde0314610337578063150b7a02146103625780632656227d1461039f5780632d63f693146103cf5780632fe3e2611461040c57610264565b806301ffc9a71461026957806302a251a3146102a657806303420181146102d157806306f3f9e61461030e57610264565b36610264573073ffffffffffffffffffffffffffffffffffffffff166102426109f8565b73ffffffffffffffffffffffffffffffffffffffff161461026257600080fd5b005b600080fd5b34801561027557600080fd5b50610290600480360381019061028b9190613884565b610a07565b60405161029d91906138cc565b60405180910390f35b3480156102b257600080fd5b506102bb610a19565b6040516102c89190613900565b60405180910390f35b3480156102dd57600080fd5b506102f860048036038101906102f39190613b5c565b610a28565b6040516103059190613900565b60405180910390f35b34801561031a57600080fd5b5061033560048036038101906103309190613c3a565b610b0d565b005b34801561034357600080fd5b5061034c610c04565b6040516103599190613ce6565b60405180910390f35b34801561036e57600080fd5b5061038960048036038101906103849190613d66565b610c96565b6040516103969190613df8565b60405180910390f35b6103b960048036038101906103b4919061407a565b610caa565b6040516103c69190613900565b60405180910390f35b3480156103db57600080fd5b506103f660048036038101906103f19190613c3a565b610df7565b6040516104039190613900565b60405180910390f35b34801561041857600080fd5b50610421610e65565b60405161042e9190614144565b60405180910390f35b34801561044357600080fd5b5061044c610e89565b6040516104599190613900565b60405180910390f35b34801561046e57600080fd5b506104896004803603810190610484919061415f565b610e98565b6040516104969190613900565b60405180910390f35b3480156104ab57600080fd5b506104c660048036038101906104c19190613c3a565b610f22565b6040516104d39190614251565b60405180910390f35b3480156104e857600080fd5b5061050360048036038101906104fe919061426c565b610f34565b60405161051091906138cc565b60405180910390f35b34801561052557600080fd5b50610540600480360381019061053b9190613c3a565b610f9f565b60405161054f939291906142ac565b60405180910390f35b34801561056457600080fd5b5061056d610fd7565b60405161057a9190613ce6565b60405180910390f35b34801561058f57600080fd5b506105aa60048036038101906105a591906142e3565b611014565b6040516105b79190613900565b60405180910390f35b3480156105cc57600080fd5b506105e760048036038101906105e29190614323565b611045565b6040516105f49190613900565b60405180910390f35b34801561060957600080fd5b50610624600480360381019061061f9190613c3a565b6110af565b6040516106319190613900565b60405180910390f35b34801561064657600080fd5b50610661600480360381019061065c9190613c3a565b6111fb565b005b34801561066f57600080fd5b5061068a600480360381019061068591906143c7565b6112f2565b6040516106979190613900565b60405180910390f35b3480156106ac57600080fd5b506106c760048036038101906106c291906144dc565b61135a565b6040516106d49190613900565b60405180910390f35b3480156106e957600080fd5b506106f2611372565b6040516106ff9190613900565b60405180910390f35b34801561071457600080fd5b5061072f600480360381019061072a91906145b3565b61137b565b60405161073c9190613900565b60405180910390f35b34801561075157600080fd5b5061075a611391565b6040516107679190613900565b60405180910390f35b34801561077c57600080fd5b506107856113d8565b6040516107929190613900565b60405180910390f35b3480156107a757600080fd5b506107c260048036038101906107bd9190614622565b6113e7565b6040516107cf9190613df8565b60405180910390f35b3480156107e457600080fd5b506107ff60048036038101906107fa9190613c3a565b6113fc565b60405161080c9190613900565b60405180910390f35b61082f600480360381019061082a9190614747565b61146a565b005b34801561083d57600080fd5b506108586004803603810190610853919061407a565b6115f3565b6040516108659190613900565b60405180910390f35b34801561087a57600080fd5b5061088361162f565b6040516108909190613ce6565b60405180910390f35b3480156108a557600080fd5b506108ae61166c565b6040516108bb9190614144565b60405180910390f35b3480156108d057600080fd5b506108eb60048036038101906108e69190613c3a565b611690565b005b3480156108f957600080fd5b50610914600480360381019061090f91906147bb565b611787565b6040516109219190613900565b60405180910390f35b34801561093657600080fd5b50610951600480360381019061094c9190613c3a565b61179b565b005b34801561095f57600080fd5b5061097a600480360381019061097591906147fb565b611892565b6040516109879190613df8565b60405180910390f35b34801561099c57600080fd5b506109b760048036038101906109b29190613c3a565b6118a7565b6040516109c49190613900565b60405180910390f35b3480156109d957600080fd5b506109e26118b9565b6040516109ef91906148f1565b60405180910390f35b6000610a02611a73565b905090565b6000610a1282611a7b565b9050919050565b6000610a23611be0565b905090565b600080610aab610aa37fb3b3f3b703cd84ce352197dcff232b1b5d3cfb2025ce47cf04742d0651f1af888c8c8c8c604051610a6492919061493c565b60405180910390208b80519060200120604051602001610a88959493929190614964565b60405160208183030381529060405280519060200120611bea565b868686611c04565b9050610afe8a828b8b8b8080601f016020809104026020016040519081016040528093929190818152602001838380828437600081840152601f19601f820116905080830192505050505050508a611c2f565b91505098975050505050505050565b610b156109f8565b73ffffffffffffffffffffffffffffffffffffffff16610b33611deb565b73ffffffffffffffffffffffffffffffffffffffff1614610b89576040517f08c379a0000000000000000000000000000000000000000000000000000000008152600401610b8090614a03565b60405180910390fd5b3073ffffffffffffffffffffffffffffffffffffffff16610ba86109f8565b73ffffffffffffffffffffffffffffffffffffffff1614610bf8576000610bcd611df3565b604051610bdb92919061493c565b604051809103902090505b80610bf16002611e00565b03610be657505b610c0181611edc565b50565b606060008054610c1390614a52565b80601f0160208091040260200160405190810160405280929190818152602001828054610c3f90614a52565b8015610c8c5780601f10610c6157610100808354040283529160200191610c8c565b820191906000526020600020905b815481529060010190602001808311610c6f57829003601f168201915b5050505050905090565b600063150b7a0260e01b9050949350505050565b600080610cb9868686866115f3565b90506000610cc682610f22565b905060046007811115610cdc57610cdb6141da565b5b816007811115610cef57610cee6141da565b5b1480610d1f575060056007811115610d0a57610d096141da565b5b816007811115610d1d57610d1c6141da565b5b145b610d5e576040517f08c379a0000000000000000000000000000000000000000000000000000000008152600401610d5590614af5565b60405180910390fd5b600180600084815260200190815260200160002060020160006101000a81548160ff0219169083151502179055507f712ae1383f79ac853f8d882153778e0260ef8f03b504e2866e0593e04d2b291f82604051610dbb9190613900565b60405180910390a1610dd08288888888612090565b610ddd8288888888612173565b610dea8288888888612187565b8192505050949350505050565b6000610e54600160008481526020019081526020016000206000016040518060200160405290816000820160009054906101000a900467ffffffffffffffff1667ffffffffffffffff1667ffffffffffffffff16815250506121e2565b67ffffffffffffffff169050919050565b7fb3b3f3b703cd84ce352197dcff232b1b5d3cfb2025ce47cf04742d0651f1af8881565b6000610e936121f0565b905090565b600080610ef9610ef17f150214d74d59b7d1e90c73fc22ef3d991dd0a76b046543d4d80ab92d2a50328f8989604051602001610ed693929190614b15565b60405160208183030381529060405280519060200120611bea565b868686611c04565b9050610f16878288604051806020016040528060008152506121fa565b91505095945050505050565b6000610f2d8261221a565b9050919050565b60006007600084815260200190815260200160002060030160008373ffffffffffffffffffffffffffffffffffffffff1673ffffffffffffffffffffffffffffffffffffffff16815260200190815260200160002060009054906101000a900460ff16905092915050565b600080600080600760008681526020019081526020016000209050806000015481600101548260020154935093509350509193909250565b60606040518060400160405280600181526020017f3100000000000000000000000000000000000000000000000000000000000000815250905090565b60008061101f611deb565b905061103c848285604051806020016040528060008152506121fa565b91505092915050565b600080611050611deb565b90506110a387828888888080601f016020809104026020016040519081016040528093929190818152602001838380828437600081840152601f19601f8201169050808301925050505050505087611c2f565b91505095945050505050565b6000806009600001805490509050600081036110d0576008549150506111f6565b600060096000016001836110e49190614b7b565b815481106110f5576110f4614baf565b5b906000526020600020016040518060400160405290816000820160009054906101000a900463ffffffff1663ffffffff1663ffffffff1681526020016000820160049054906101000a90047bffffffffffffffffffffffffffffffffffffffffffffffffffffffff167bffffffffffffffffffffffffffffffffffffffffffffffffffffffff167bffffffffffffffffffffffffffffffffffffffffffffffffffffffff1681525050905083816000015163ffffffff16116111dd5780602001517bffffffffffffffffffffffffffffffffffffffffffffffffffffffff16925050506111f6565b6111f184600961232e90919063ffffffff16565b925050505b919050565b6112036109f8565b73ffffffffffffffffffffffffffffffffffffffff16611221611deb565b73ffffffffffffffffffffffffffffffffffffffff1614611277576040517f08c379a000000000000000000000000000000000000000000000000000000000815260040161126e90614a03565b60405180910390fd5b3073ffffffffffffffffffffffffffffffffffffffff166112966109f8565b73ffffffffffffffffffffffffffffffffffffffff16146112e65760006112bb611df3565b6040516112c992919061493c565b604051809103902090505b806112df6002611e00565b036112d457505b6112ef8161241d565b50565b6000806112fd611deb565b905061134f86828787878080601f016020809104026020016040519081016040528093929190818152602001838380828437600081840152601f19601f820116905080830192505050505050506121fa565b915050949350505050565b600061136885858585612462565b9050949350505050565b60006064905090565b6000611388848484612769565b90509392505050565b600080600960000180549050146113cf576113ac60096119b6565b7bffffffffffffffffffffffffffffffffffffffffffffffffffffffff166113d3565b6008545b905090565b60006113e2612810565b905090565b600063bc197c8160e01b905095945050505050565b6000611459600160008481526020019081526020016000206001016040518060200160405290816000820160009054906101000a900467ffffffffffffffff1667ffffffffffffffff1667ffffffffffffffff16815250506121e2565b67ffffffffffffffff169050919050565b6114726109f8565b73ffffffffffffffffffffffffffffffffffffffff16611490611deb565b73ffffffffffffffffffffffffffffffffffffffff16146114e6576040517f08c379a00000000000000000000000000000000000000000000000000000000081526004016114dd90614a03565b60405180910390fd5b3073ffffffffffffffffffffffffffffffffffffffff166115056109f8565b73ffffffffffffffffffffffffffffffffffffffff161461155557600061152a611df3565b60405161153892919061493c565b604051809103902090505b8061154e6002611e00565b0361154357505b6000808573ffffffffffffffffffffffffffffffffffffffff1685858560405161158092919061493c565b60006040518083038185875af1925050503d80600081146115bd576040519150601f19603f3d011682016040523d82523d6000602084013e6115c2565b606091505b50915091506115ea8282604051806060016040528060288152602001615ed66028913961281a565b50505050505050565b60008484848460405160200161160c9493929190614e71565b6040516020818303038152906040528051906020012060001c9050949350505050565b60606040518060400160405280602081526020017f737570706f72743d627261766f2671756f72756d3d666f722c6162737461696e815250905090565b7f150214d74d59b7d1e90c73fc22ef3d991dd0a76b046543d4d80ab92d2a50328f81565b6116986109f8565b73ffffffffffffffffffffffffffffffffffffffff166116b6611deb565b73ffffffffffffffffffffffffffffffffffffffff161461170c576040517f08c379a000000000000000000000000000000000000000000000000000000000815260040161170390614a03565b60405180910390fd5b3073ffffffffffffffffffffffffffffffffffffffff1661172b6109f8565b73ffffffffffffffffffffffffffffffffffffffff161461177b576000611750611df3565b60405161175e92919061493c565b604051809103902090505b806117746002611e00565b0361176957505b6117848161283c565b50565b600061179383836128c4565b905092915050565b6117a36109f8565b73ffffffffffffffffffffffffffffffffffffffff166117c1611deb565b73ffffffffffffffffffffffffffffffffffffffff1614611817576040517f08c379a000000000000000000000000000000000000000000000000000000000815260040161180e90614a03565b60405180910390fd5b3073ffffffffffffffffffffffffffffffffffffffff166118366109f8565b73ffffffffffffffffffffffffffffffffffffffff161461188657600061185b611df3565b60405161186992919061493c565b604051809103902090505b8061187f6002611e00565b0361187457505b61188f816128e0565b50565b600063f23a6e6160e01b905095945050505050565b60006118b282612925565b9050919050565b7f000000000000000000000000000000000000000000000000000000000000000081565b60007bffffffffffffffffffffffffffffffffffffffffffffffffffffffff8016821115611940576040517f08c379a000000000000000000000000000000000000000000000000000000000815260040161193790614f3d565b60405180910390fd5b819050919050565b6000806119698460000161195b43611a20565b611964866118dd565b6129ed565b817bffffffffffffffffffffffffffffffffffffffffffffffffffffffff169150807bffffffffffffffffffffffffffffffffffffffffffffffffffffffff169050915091509250929050565b6000808260000180549050905060008114611a15576119e4836000016001836119df9190614b7b565b612d73565b60000160049054906101000a90047bffffffffffffffffffffffffffffffffffffffffffffffffffffffff16611a18565b60005b915050919050565b600063ffffffff8016821115611a6b576040517f08c379a0000000000000000000000000000000000000000000000000000000008152600401611a6290614fcf565b60405180910390fd5b819050919050565b600030905090565b6000639a802a6d60e01b630342018160e01b635f398a1460e01b7f79dd796f000000000000000000000000000000000000000000000000000000001818187bffffffffffffffffffffffffffffffffffffffffffffffffffffffff1916827bffffffffffffffffffffffffffffffffffffffffffffffffffffffff19161480611b6157507f79dd796f000000000000000000000000000000000000000000000000000000007bffffffffffffffffffffffffffffffffffffffffffffffffffffffff1916827bffffffffffffffffffffffffffffffffffffffffffffffffffffffff1916145b80611bc957507f4e2312e0000000000000000000000000000000000000000000000000000000007bffffffffffffffffffffffffffffffffffffffffffffffffffffffff1916827bffffffffffffffffffffffffffffffffffffffffffffffffffffffff1916145b80611bd95750611bd882612d88565b5b9050919050565b6000600554905090565b6000611bfd611bf7612df2565b83612f0c565b9050919050565b6000806000611c1587878787612f3f565b91509150611c2281613021565b8192505050949350505050565b60008060016000888152602001908152602001600020905060016007811115611c5b57611c5a6141da565b5b611c6488610f22565b6007811115611c7657611c756141da565b5b14611cb6576040517f08c379a0000000000000000000000000000000000000000000000000000000008152600401611cad90615061565b60405180910390fd5b6000611d1587611d05846000016040518060200160405290816000820160009054906101000a900467ffffffffffffffff1667ffffffffffffffff1667ffffffffffffffff16815250506121e2565b67ffffffffffffffff1686612769565b9050611d248888888488613187565b6000845103611d86578673ffffffffffffffffffffffffffffffffffffffff167fb8e138887d0aa13bab447e82de9d5c1777041ecd21ca36ba824ff1e6c07ddda489888489604051611d799493929190615081565b60405180910390a2611ddd565b8673ffffffffffffffffffffffffffffffffffffffff167fe2babfbac5889a709b63bb7f598b324e08bc5a4fb9ec647fb3cbc9ec07eb87128988848989604051611dd4959493929190615117565b60405180910390a25b809250505095945050505050565b600033905090565b3660008036915091509091565b6000611e0b8261338b565b15611e42576040517f3db2a12a00000000000000000000000000000000000000000000000000000000815260040160405180910390fd5b60008260000160009054906101000a9004600f0b905082600101600082600f0b600f0b815260200190815260200160002054915082600101600082600f0b600f0b815260200190815260200160002060009055600181018360000160006101000a8154816fffffffffffffffffffffffffffffffff0219169083600f0b6fffffffffffffffffffffffffffffffff16021790555050919050565b611ee4611372565b811115611f26576040517f08c379a0000000000000000000000000000000000000000000000000000000008152600401611f1d90615210565b60405180910390fd5b6000611f30611391565b905060008114158015611f4b57506000600960000180549050145b1561203d5760096000016040518060400160405280600063ffffffff168152602001611f76846118dd565b7bffffffffffffffffffffffffffffffffffffffffffffffffffffffff168152509080600181540180825580915050600190039060005260206000200160009091909190915060008201518160000160006101000a81548163ffffffff021916908363ffffffff16021790555060208201518160000160046101000a8154817bffffffffffffffffffffffffffffffffffffffffffffffffffffffff02191690837bffffffffffffffffffffffffffffffffffffffffffffffffffffffff16021790555050505b61205182600961194890919063ffffffff16565b50507f0553476bf02ef2726e8ce5ced78d63e26e602e4a2257b1f559418e24b46339978183604051612084929190615230565b60405180910390a15050565b3073ffffffffffffffffffffffffffffffffffffffff166120af6109f8565b73ffffffffffffffffffffffffffffffffffffffff161461216c5760005b845181101561216a573073ffffffffffffffffffffffffffffffffffffffff16858281518110612100576120ff614baf565b5b602002602001015173ffffffffffffffffffffffffffffffffffffffff16036121595761215883828151811061213957612138614baf565b5b60200260200101518051906020012060026133c090919063ffffffff16565b5b8061216390615259565b90506120cd565b505b5050505050565b612180858585858561343c565b5050505050565b3073ffffffffffffffffffffffffffffffffffffffff166121a66109f8565b73ffffffffffffffffffffffffffffffffffffffff16146121db576121cb600261338b565b6121da576121d9600261354b565b5b5b5050505050565b600081600001519050919050565b6000600454905090565b60006122108585858561220b6135cc565b611c2f565b9050949350505050565b6000806001600084815260200190815260200160002090508060020160009054906101000a900460ff1615612253576007915050612329565b8060020160019054906101000a900460ff1615612274576002915050612329565b600061227f84610df7565b9050600081036122c4576040517f08c379a00000000000000000000000000000000000000000000000000000000081526004016122bb906152ed565b60405180910390fd5b4381106122d657600092505050612329565b60006122e1856113fc565b90504381106122f65760019350505050612329565b6122ff856135e3565b8015612310575061230f8561362a565b5b156123215760049350505050612329565b600393505050505b919050565b6000438210612372576040517f08c379a000000000000000000000000000000000000000000000000000000000815260040161236990615359565b60405180910390fd5b600061237d83611a20565b9050600084600001805490509050600061239d8660000184600085613655565b9050600081146123f1576123c0866000016001836123bb9190614b7b565b612d73565b60000160049054906101000a90047bffffffffffffffffffffffffffffffffffffffffffffffffffffffff166123f4565b60005b7bffffffffffffffffffffffffffffffffffffffffffffffffffffffff16935050505092915050565b7fc565b045403dc03c2eea82b81a0465edad9e2e7fc4d97e11421c209da93d7a9360045482604051612450929190615230565b60405180910390a18060048190555050565b600061246c6113d8565b612489612477611deb565b6001436124849190614b7b565b611787565b10156124ca576040517f08c379a00000000000000000000000000000000000000000000000000000000081526004016124c1906153eb565b60405180910390fd5b60006124df86868686805190602001206115f3565b90508451865114612525576040517f08c379a000000000000000000000000000000000000000000000000000000000815260040161251c9061547d565b60405180910390fd5b8351865114612569576040517f08c379a00000000000000000000000000000000000000000000000000000000081526004016125609061547d565b60405180910390fd5b60008651116125ad576040517f08c379a00000000000000000000000000000000000000000000000000000000081526004016125a4906154e9565b60405180910390fd5b600060016000838152602001908152602001600020905061260d816000016040518060200160405290816000820160009054906101000a900467ffffffffffffffff1667ffffffffffffffff1667ffffffffffffffff16815250506136c8565b61264c576040517f08c379a00000000000000000000000000000000000000000000000000000000081526004016126439061557b565b60405180910390fd5b600061265e612659610e89565b6136e2565b612667436136e2565b61267191906155af565b90506000612685612680610a19565b6136e2565b8261269091906155af565b90506126a8828460000161373990919063ffffffff16565b6126be818460010161373990919063ffffffff16565b7f7d84a6263ae0d98d3329bd7b46bb4e8d6f98cd35a7adb45c274c8b7fd5ebd5e0846126e8611deb565b8b8b8d5167ffffffffffffffff811115612705576127046139fb565b5b60405190808252806020026020018201604052801561273857816020015b60608152602001906001900390816127235790505b508c88888e60405161275299989796959493929190615737565b60405180910390a183945050505050949350505050565b60007f000000000000000000000000000000000000000000000000000000000000000073ffffffffffffffffffffffffffffffffffffffff16633a46b1a885856040518363ffffffff1660e01b81526004016127c69291906157e7565b602060405180830381865afa1580156127e3573d6000803e3d6000fd5b505050506040513d601f19601f820116820180604052508101906128079190615825565b90509392505050565b6000600654905090565b6060831561282a57829050612835565b6128348383613768565b5b9392505050565b6000811161287f576040517f08c379a0000000000000000000000000000000000000000000000000000000008152600401612876906158c4565b60405180910390fd5b7f7e3f7f0708a84de9203036abaa450dccc85ad5ff52f78c170f3edb55cf5e8828600554826040516128b2929190615230565b60405180910390a18060058190555050565b60006128d883836128d36135cc565b612769565b905092915050565b7fccb45da8d5717e6c4544694297c4ba5cf151d455c9bb0ed4fc7a38411bc0546160065482604051612913929190615230565b60405180910390a18060068190555050565b600061292f611372565b612938836110af565b7f000000000000000000000000000000000000000000000000000000000000000073ffffffffffffffffffffffffffffffffffffffff16638e539e8c856040518263ffffffff1660e01b81526004016129919190613900565b602060405180830381865afa1580156129ae573d6000803e3d6000fd5b505050506040513d601f19601f820116820180604052508101906129d29190615825565b6129dc91906158e4565b6129e69190615955565b9050919050565b6000806000858054905090506000811115612c83576000612a1a87600184612a159190614b7b565b612d73565b6040518060400160405290816000820160009054906101000a900463ffffffff1663ffffffff1663ffffffff1681526020016000820160049054906101000a90047bffffffffffffffffffffffffffffffffffffffffffffffffffffffff167bffffffffffffffffffffffffffffffffffffffffffffffffffffffff167bffffffffffffffffffffffffffffffffffffffffffffffffffffffff168152505090508563ffffffff16816000015163ffffffff161115612b0e576040517f08c379a0000000000000000000000000000000000000000000000000000000008152600401612b05906159d2565b60405180910390fd5b8563ffffffff16816000015163ffffffff1603612b925784612b3c88600185612b379190614b7b565b612d73565b60000160046101000a8154817bffffffffffffffffffffffffffffffffffffffffffffffffffffffff02191690837bffffffffffffffffffffffffffffffffffffffffffffffffffffffff160217905550612c72565b8660405180604001604052808863ffffffff168152602001877bffffffffffffffffffffffffffffffffffffffffffffffffffffffff168152509080600181540180825580915050600190039060005260206000200160009091909190915060008201518160000160006101000a81548163ffffffff021916908363ffffffff16021790555060208201518160000160046101000a8154817bffffffffffffffffffffffffffffffffffffffffffffffffffffffff02191690837bffffffffffffffffffffffffffffffffffffffffffffffffffffffff16021790555050505b806020015185935093505050612d6b565b8560405180604001604052808763ffffffff168152602001867bffffffffffffffffffffffffffffffffffffffffffffffffffffffff168152509080600181540180825580915050600190039060005260206000200160009091909190915060008201518160000160006101000a81548163ffffffff021916908363ffffffff16021790555060208201518160000160046101000a8154817bffffffffffffffffffffffffffffffffffffffffffffffffffffffff02191690837bffffffffffffffffffffffffffffffffffffffffffffffffffffffff160217905550505060008492509250505b935093915050565b60008260005281602060002001905092915050565b60007f01ffc9a7000000000000000000000000000000000000000000000000000000007bffffffffffffffffffffffffffffffffffffffffffffffffffffffff1916827bffffffffffffffffffffffffffffffffffffffffffffffffffffffff1916149050919050565b60007f000000000000000000000000000000000000000000000000000000000000000073ffffffffffffffffffffffffffffffffffffffff163073ffffffffffffffffffffffffffffffffffffffff16148015612e6e57507f000000000000000000000000000000000000000000000000000000000000000046145b15612e9b577f00000000000000000000000000000000000000000000000000000000000000009050612f09565b612f067f00000000000000000000000000000000000000000000000000000000000000007f00000000000000000000000000000000000000000000000000000000000000007f00000000000000000000000000000000000000000000000000000000000000006137b8565b90505b90565b60008282604051602001612f21929190615a6a565b60405160208183030381529060405280519060200120905092915050565b6000807f7fffffffffffffffffffffffffffffff5d576e7357a4501ddfe92f46681b20a08360001c1115612f7a576000600391509150613018565b600060018787878760405160008152602001604052604051612f9f9493929190615aa1565b6020604051602081039080840390855afa158015612fc1573d6000803e3d6000fd5b505050602060405103519050600073ffffffffffffffffffffffffffffffffffffffff168173ffffffffffffffffffffffffffffffffffffffff160361300f57600060019250925050613018565b80600092509250505b94509492505050565b60006004811115613035576130346141da565b5b816004811115613048576130476141da565b5b03156131845760016004811115613062576130616141da565b5b816004811115613075576130746141da565b5b036130b5576040517f08c379a00000000000000000000000000000000000000000000000000000000081526004016130ac90615b32565b60405180910390fd5b600260048111156130c9576130c86141da565b5b8160048111156130dc576130db6141da565b5b0361311c576040517f08c379a000000000000000000000000000000000000000000000000000000000815260040161311390615b9e565b60405180910390fd5b600360048111156131305761312f6141da565b5b816004811115613143576131426141da565b5b03613183576040517f08c379a000000000000000000000000000000000000000000000000000000000815260040161317a90615c30565b60405180910390fd5b5b50565b60006007600087815260200190815260200160002090508060030160008673ffffffffffffffffffffffffffffffffffffffff1673ffffffffffffffffffffffffffffffffffffffff16815260200190815260200160002060009054906101000a900460ff161561322d576040517f08c379a000000000000000000000000000000000000000000000000000000000815260040161322490615cc2565b60405180910390fd5b60018160030160008773ffffffffffffffffffffffffffffffffffffffff1673ffffffffffffffffffffffffffffffffffffffff16815260200190815260200160002060006101000a81548160ff0219169083151502179055506000600281111561329b5761329a6141da565b5b60ff168460ff16036132c757828160000160008282546132bb9190615ce2565b92505081905550613383565b600160028111156132db576132da6141da565b5b60ff168460ff160361330757828160010160008282546132fb9190615ce2565b92505081905550613382565b60028081111561331a576133196141da565b5b60ff168460ff1603613346578281600201600082825461333a9190615ce2565b92505081905550613381565b6040517f08c379a000000000000000000000000000000000000000000000000000000000815260040161337890615d88565b60405180910390fd5b5b5b505050505050565b60008160000160009054906101000a9004600f0b600f0b8260000160109054906101000a9004600f0b600f0b13159050919050565b60008260000160109054906101000a9004600f0b90508183600101600083600f0b600f0b815260200190815260200160002081905550600181018360000160106101000a8154816fffffffffffffffffffffffffffffffff0219169083600f0b6fffffffffffffffffffffffffffffffff160217905550505050565b6000604051806060016040528060278152602001615efe60279139905060005b85518110156135425760008087838151811061347b5761347a614baf565b5b602002602001015173ffffffffffffffffffffffffffffffffffffffff168784815181106134ac576134ab614baf565b5b60200260200101518785815181106134c7576134c6614baf565b5b60200260200101516040516134dc9190615dd9565b60006040518083038185875af1925050503d8060008114613519576040519150601f19603f3d011682016040523d82523d6000602084013e61351e565b606091505b509150915061352e82828661281a565b5050508061353b90615259565b905061345c565b50505050505050565b60008160000160006101000a8154816fffffffffffffffffffffffffffffffff0219169083600f0b6fffffffffffffffffffffffffffffffff16021790555060008160000160106101000a8154816fffffffffffffffffffffffffffffffff0219169083600f0b6fffffffffffffffffffffffffffffffff16021790555050565b606060405180602001604052806000815250905090565b6000806007600084815260200190815260200160002090508060020154816001015461360f9190615ce2565b61362061361b85610df7565b6118a7565b1115915050919050565b6000806007600084815260200190815260200160002090508060000154816001015411915050919050565b60005b818310156136bd57600061366c84846137f2565b90508463ffffffff1661367f8783612d73565b60000160009054906101000a900463ffffffff1663ffffffff1611156136a7578092506136b7565b6001816136b49190615ce2565b93505b50613658565b819050949350505050565b600080826000015167ffffffffffffffff16149050919050565b600067ffffffffffffffff8016821115613731576040517f08c379a000000000000000000000000000000000000000000000000000000000815260040161372890615e62565b60405180910390fd5b819050919050565b808260000160006101000a81548167ffffffffffffffff021916908367ffffffffffffffff1602179055505050565b60008251111561377b5781518083602001fd5b806040517f08c379a00000000000000000000000000000000000000000000000000000000081526004016137af9190613ce6565b60405180910390fd5b600083838346306040516020016137d3959493929190615e82565b6040516020818303038152906040528051906020012090509392505050565b600060028284186138039190615955565b8284166138109190615ce2565b905092915050565b6000604051905090565b600080fd5b600080fd5b60007fffffffff0000000000000000000000000000000000000000000000000000000082169050919050565b6138618161382c565b811461386c57600080fd5b50565b60008135905061387e81613858565b92915050565b60006020828403121561389a57613899613822565b5b60006138a88482850161386f565b91505092915050565b60008115159050919050565b6138c6816138b1565b82525050565b60006020820190506138e160008301846138bd565b92915050565b6000819050919050565b6138fa816138e7565b82525050565b600060208201905061391560008301846138f1565b92915050565b613924816138e7565b811461392f57600080fd5b50565b6000813590506139418161391b565b92915050565b600060ff82169050919050565b61395d81613947565b811461396857600080fd5b50565b60008135905061397a81613954565b92915050565b600080fd5b600080fd5b600080fd5b60008083601f8401126139a5576139a4613980565b5b8235905067ffffffffffffffff8111156139c2576139c1613985565b5b6020830191508360018202830111156139de576139dd61398a565b5b9250929050565b600080fd5b6000601f19601f8301169050919050565b7f4e487b7100000000000000000000000000000000000000000000000000000000600052604160045260246000fd5b613a33826139ea565b810181811067ffffffffffffffff82111715613a5257613a516139fb565b5b80604052505050565b6000613a65613818565b9050613a718282613a2a565b919050565b600067ffffffffffffffff821115613a9157613a906139fb565b5b613a9a826139ea565b9050602081019050919050565b82818337600083830152505050565b6000613ac9613ac484613a76565b613a5b565b905082815260208101848484011115613ae557613ae46139e5565b5b613af0848285613aa7565b509392505050565b600082601f830112613b0d57613b0c613980565b5b8135613b1d848260208601613ab6565b91505092915050565b6000819050919050565b613b3981613b26565b8114613b4457600080fd5b50565b600081359050613b5681613b30565b92915050565b60008060008060008060008060e0898b031215613b7c57613b7b613822565b5b6000613b8a8b828c01613932565b9850506020613b9b8b828c0161396b565b975050604089013567ffffffffffffffff811115613bbc57613bbb613827565b5b613bc88b828c0161398f565b9650965050606089013567ffffffffffffffff811115613beb57613bea613827565b5b613bf78b828c01613af8565b9450506080613c088b828c0161396b565b93505060a0613c198b828c01613b47565b92505060c0613c2a8b828c01613b47565b9150509295985092959890939650565b600060208284031215613c5057613c4f613822565b5b6000613c5e84828501613932565b91505092915050565b600081519050919050565b600082825260208201905092915050565b60005b83811015613ca1578082015181840152602081019050613c86565b60008484015250505050565b6000613cb882613c67565b613cc28185613c72565b9350613cd2818560208601613c83565b613cdb816139ea565b840191505092915050565b60006020820190508181036000830152613d008184613cad565b905092915050565b600073ffffffffffffffffffffffffffffffffffffffff82169050919050565b6000613d3382613d08565b9050919050565b613d4381613d28565b8114613d4e57600080fd5b50565b600081359050613d6081613d3a565b92915050565b60008060008060808587031215613d8057613d7f613822565b5b6000613d8e87828801613d51565b9450506020613d9f87828801613d51565b9350506040613db087828801613932565b925050606085013567ffffffffffffffff811115613dd157613dd0613827565b5b613ddd87828801613af8565b91505092959194509250565b613df28161382c565b82525050565b6000602082019050613e0d6000830184613de9565b92915050565b600067ffffffffffffffff821115613e2e57613e2d6139fb565b5b602082029050602081019050919050565b6000613e52613e4d84613e13565b613a5b565b90508083825260208201905060208402830185811115613e7557613e7461398a565b5b835b81811015613e9e5780613e8a8882613d51565b845260208401935050602081019050613e77565b5050509392505050565b600082601f830112613ebd57613ebc613980565b5b8135613ecd848260208601613e3f565b91505092915050565b600067ffffffffffffffff821115613ef157613ef06139fb565b5b602082029050602081019050919050565b6000613f15613f1084613ed6565b613a5b565b90508083825260208201905060208402830185811115613f3857613f3761398a565b5b835b81811015613f615780613f4d8882613932565b845260208401935050602081019050613f3a565b5050509392505050565b600082601f830112613f8057613f7f613980565b5b8135613f90848260208601613f02565b91505092915050565b600067ffffffffffffffff821115613fb457613fb36139fb565b5b602082029050602081019050919050565b6000613fd8613fd384613f99565b613a5b565b90508083825260208201905060208402830185811115613ffb57613ffa61398a565b5b835b8181101561404257803567ffffffffffffffff8111156140205761401f613980565b5b80860161402d8982613af8565b85526020850194505050602081019050613ffd565b5050509392505050565b600082601f83011261406157614060613980565b5b8135614071848260208601613fc5565b91505092915050565b6000806000806080858703121561409457614093613822565b5b600085013567ffffffffffffffff8111156140b2576140b1613827565b5b6140be87828801613ea8565b945050602085013567ffffffffffffffff8111156140df576140de613827565b5b6140eb87828801613f6b565b935050604085013567ffffffffffffffff81111561410c5761410b613827565b5b6141188782880161404c565b925050606061412987828801613b47565b91505092959194509250565b61413e81613b26565b82525050565b60006020820190506141596000830184614135565b92915050565b600080600080600060a0868803121561417b5761417a613822565b5b600061418988828901613932565b955050602061419a8882890161396b565b94505060406141ab8882890161396b565b93505060606141bc88828901613b47565b92505060806141cd88828901613b47565b9150509295509295909350565b7f4e487b7100000000000000000000000000000000000000000000000000000000600052602160045260246000fd5b6008811061421a576142196141da565b5b50565b600081905061422b82614209565b919050565b600061423b8261421d565b9050919050565b61424b81614230565b82525050565b60006020820190506142666000830184614242565b92915050565b6000806040838503121561428357614282613822565b5b600061429185828601613932565b92505060206142a285828601613d51565b9150509250929050565b60006060820190506142c160008301866138f1565b6142ce60208301856138f1565b6142db60408301846138f1565b949350505050565b600080604083850312156142fa576142f9613822565b5b600061430885828601613932565b92505060206143198582860161396b565b9150509250929050565b60008060008060006080868803121561433f5761433e613822565b5b600061434d88828901613932565b955050602061435e8882890161396b565b945050604086013567ffffffffffffffff81111561437f5761437e613827565b5b61438b8882890161398f565b9350935050606086013567ffffffffffffffff8111156143ae576143ad613827565b5b6143ba88828901613af8565b9150509295509295909350565b600080600080606085870312156143e1576143e0613822565b5b60006143ef87828801613932565b94505060206144008782880161396b565b935050604085013567ffffffffffffffff81111561442157614420613827565b5b61442d8782880161398f565b925092505092959194509250565b600067ffffffffffffffff821115614456576144556139fb565b5b61445f826139ea565b9050602081019050919050565b600061447f61447a8461443b565b613a5b565b90508281526020810184848401111561449b5761449a6139e5565b5b6144a6848285613aa7565b509392505050565b600082601f8301126144c3576144c2613980565b5b81356144d384826020860161446c565b91505092915050565b600080600080608085870312156144f6576144f5613822565b5b600085013567ffffffffffffffff81111561451457614513613827565b5b61452087828801613ea8565b945050602085013567ffffffffffffffff81111561454157614540613827565b5b61454d87828801613f6b565b935050604085013567ffffffffffffffff81111561456e5761456d613827565b5b61457a8782880161404c565b925050606085013567ffffffffffffffff81111561459b5761459a613827565b5b6145a7878288016144ae565b91505092959194509250565b6000806000606084860312156145cc576145cb613822565b5b60006145da86828701613d51565b93505060206145eb86828701613932565b925050604084013567ffffffffffffffff81111561460c5761460b613827565b5b61461886828701613af8565b9150509250925092565b600080600080600060a0868803121561463e5761463d613822565b5b600061464c88828901613d51565b955050602061465d88828901613d51565b945050604086013567ffffffffffffffff81111561467e5761467d613827565b5b61468a88828901613f6b565b935050606086013567ffffffffffffffff8111156146ab576146aa613827565b5b6146b788828901613f6b565b925050608086013567ffffffffffffffff8111156146d8576146d7613827565b5b6146e488828901613af8565b9150509295509295909350565b60008083601f84011261470757614706613980565b5b8235905067ffffffffffffffff81111561472457614723613985565b5b6020830191508360018202830111156147405761473f61398a565b5b9250929050565b6000806000806060858703121561476157614760613822565b5b600061476f87828801613d51565b945050602061478087828801613932565b935050604085013567ffffffffffffffff8111156147a1576147a0613827565b5b6147ad878288016146f1565b925092505092959194509250565b600080604083850312156147d2576147d1613822565b5b60006147e085828601613d51565b92505060206147f185828601613932565b9150509250929050565b600080600080600060a0868803121561481757614816613822565b5b600061482588828901613d51565b955050602061483688828901613d51565b945050604061484788828901613932565b935050606061485888828901613932565b925050608086013567ffffffffffffffff81111561487957614878613827565b5b61488588828901613af8565b9150509295509295909350565b6000819050919050565b60006148b76148b26148ad84613d08565b614892565b613d08565b9050919050565b60006148c98261489c565b9050919050565b60006148db826148be565b9050919050565b6148eb816148d0565b82525050565b600060208201905061490660008301846148e2565b92915050565b600081905092915050565b6000614923838561490c565b9350614930838584613aa7565b82840190509392505050565b6000614949828486614917565b91508190509392505050565b61495e81613947565b82525050565b600060a0820190506149796000830188614135565b61498660208301876138f1565b6149936040830186614955565b6149a06060830185614135565b6149ad6080830184614135565b9695505050505050565b7f476f7665726e6f723a206f6e6c79476f7665726e616e63650000000000000000600082015250565b60006149ed601883613c72565b91506149f8826149b7565b602082019050919050565b60006020820190508181036000830152614a1c816149e0565b9050919050565b7f4e487b7100000000000000000000000000000000000000000000000000000000600052602260045260246000fd5b60006002820490506001821680614a6a57607f821691505b602082108103614a7d57614a7c614a23565b5b50919050565b7f476f7665726e6f723a2070726f706f73616c206e6f742073756363657373667560008201527f6c00000000000000000000000000000000000000000000000000000000000000602082015250565b6000614adf602183613c72565b9150614aea82614a83565b604082019050919050565b60006020820190508181036000830152614b0e81614ad2565b9050919050565b6000606082019050614b2a6000830186614135565b614b3760208301856138f1565b614b446040830184614955565b949350505050565b7f4e487b7100000000000000000000000000000000000000000000000000000000600052601160045260246000fd5b6000614b86826138e7565b9150614b91836138e7565b9250828203905081811115614ba957614ba8614b4c565b5b92915050565b7f4e487b7100000000000000000000000000000000000000000000000000000000600052603260045260246000fd5b600081519050919050565b600082825260208201905092915050565b6000819050602082019050919050565b614c1381613d28565b82525050565b6000614c258383614c0a565b60208301905092915050565b6000602082019050919050565b6000614c4982614bde565b614c538185614be9565b9350614c5e83614bfa565b8060005b83811015614c8f578151614c768882614c19565b9750614c8183614c31565b925050600181019050614c62565b5085935050505092915050565b600081519050919050565b600082825260208201905092915050565b6000819050602082019050919050565b614cd1816138e7565b82525050565b6000614ce38383614cc8565b60208301905092915050565b6000602082019050919050565b6000614d0782614c9c565b614d118185614ca7565b9350614d1c83614cb8565b8060005b83811015614d4d578151614d348882614cd7565b9750614d3f83614cef565b925050600181019050614d20565b5085935050505092915050565b600081519050919050565b600082825260208201905092915050565b6000819050602082019050919050565b600081519050919050565b600082825260208201905092915050565b6000614dad82614d86565b614db78185614d91565b9350614dc7818560208601613c83565b614dd0816139ea565b840191505092915050565b6000614de78383614da2565b905092915050565b6000602082019050919050565b6000614e0782614d5a565b614e118185614d65565b935083602082028501614e2385614d76565b8060005b85811015614e5f5784840389528151614e408582614ddb565b9450614e4b83614def565b925060208a01995050600181019050614e27565b50829750879550505050505092915050565b60006080820190508181036000830152614e8b8187614c3e565b90508181036020830152614e9f8186614cfc565b90508181036040830152614eb38185614dfc565b9050614ec26060830184614135565b95945050505050565b7f53616665436173743a2076616c756520646f65736e27742066697420696e203260008201527f3234206269747300000000000000000000000000000000000000000000000000602082015250565b6000614f27602783613c72565b9150614f3282614ecb565b604082019050919050565b60006020820190508181036000830152614f5681614f1a565b9050919050565b7f53616665436173743a2076616c756520646f65736e27742066697420696e203360008201527f3220626974730000000000000000000000000000000000000000000000000000602082015250565b6000614fb9602683613c72565b9150614fc482614f5d565b604082019050919050565b60006020820190508181036000830152614fe881614fac565b9050919050565b7f476f7665726e6f723a20766f7465206e6f742063757272656e746c792061637460008201527f6976650000000000000000000000000000000000000000000000000000000000602082015250565b600061504b602383613c72565b915061505682614fef565b604082019050919050565b6000602082019050818103600083015261507a8161503e565b9050919050565b600060808201905061509660008301876138f1565b6150a36020830186614955565b6150b060408301856138f1565b81810360608301526150c28184613cad565b905095945050505050565b600082825260208201905092915050565b60006150e982614d86565b6150f381856150cd565b9350615103818560208601613c83565b61510c816139ea565b840191505092915050565b600060a08201905061512c60008301886138f1565b6151396020830187614955565b61514660408301866138f1565b81810360608301526151588185613cad565b9050818103608083015261516c81846150de565b90509695505050505050565b7f476f7665726e6f72566f74657351756f72756d4672616374696f6e3a2071756f60008201527f72756d4e756d657261746f72206f7665722071756f72756d44656e6f6d696e6160208201527f746f720000000000000000000000000000000000000000000000000000000000604082015250565b60006151fa604383613c72565b915061520582615178565b606082019050919050565b60006020820190508181036000830152615229816151ed565b9050919050565b600060408201905061524560008301856138f1565b61525260208301846138f1565b9392505050565b6000615264826138e7565b91507fffffffffffffffffffffffffffffffffffffffffffffffffffffffffffffffff820361529657615295614b4c565b5b600182019050919050565b7f476f7665726e6f723a20756e6b6e6f776e2070726f706f73616c206964000000600082015250565b60006152d7601d83613c72565b91506152e2826152a1565b602082019050919050565b60006020820190508181036000830152615306816152ca565b9050919050565b7f436865636b706f696e74733a20626c6f636b206e6f7420796574206d696e6564600082015250565b6000615343602083613c72565b915061534e8261530d565b602082019050919050565b6000602082019050818103600083015261537281615336565b9050919050565b7f476f7665726e6f723a2070726f706f73657220766f7465732062656c6f77207060008201527f726f706f73616c207468726573686f6c64000000000000000000000000000000602082015250565b60006153d5603183613c72565b91506153e082615379565b604082019050919050565b60006020820190508181036000830152615404816153c8565b9050919050565b7f476f7665726e6f723a20696e76616c69642070726f706f73616c206c656e677460008201527f6800000000000000000000000000000000000000000000000000000000000000602082015250565b6000615467602183613c72565b91506154728261540b565b604082019050919050565b600060208201905081810360008301526154968161545a565b9050919050565b7f476f7665726e6f723a20656d7074792070726f706f73616c0000000000000000600082015250565b60006154d3601883613c72565b91506154de8261549d565b602082019050919050565b60006020820190508181036000830152615502816154c6565b9050919050565b7f476f7665726e6f723a2070726f706f73616c20616c726561647920657869737460008201527f7300000000000000000000000000000000000000000000000000000000000000602082015250565b6000615565602183613c72565b915061557082615509565b604082019050919050565b6000602082019050818103600083015261559481615558565b9050919050565b600067ffffffffffffffff82169050919050565b60006155ba8261559b565b91506155c58361559b565b9250828201905067ffffffffffffffff8111156155e5576155e4614b4c565b5b92915050565b6155f481613d28565b82525050565b600081519050919050565b600082825260208201905092915050565b6000819050602082019050919050565b600082825260208201905092915050565b600061564282613c67565b61564c8185615626565b935061565c818560208601613c83565b615665816139ea565b840191505092915050565b600061567c8383615637565b905092915050565b6000602082019050919050565b600061569c826155fa565b6156a68185615605565b9350836020820285016156b885615616565b8060005b858110156156f457848403895281516156d58582615670565b94506156e083615684565b925060208a019950506001810190506156bc565b50829750879550505050505092915050565b600061572161571c6157178461559b565b614892565b6138e7565b9050919050565b61573181615706565b82525050565b60006101208201905061574d600083018c6138f1565b61575a602083018b6155eb565b818103604083015261576c818a614c3e565b905081810360608301526157808189614cfc565b905081810360808301526157948188615691565b905081810360a08301526157a88187614dfc565b90506157b760c0830186615728565b6157c460e0830185615728565b8181036101008301526157d78184613cad565b90509a9950505050505050505050565b60006040820190506157fc60008301856155eb565b61580960208301846138f1565b9392505050565b60008151905061581f8161391b565b92915050565b60006020828403121561583b5761583a613822565b5b600061584984828501615810565b91505092915050565b7f476f7665726e6f7253657474696e67733a20766f74696e6720706572696f642060008201527f746f6f206c6f7700000000000000000000000000000000000000000000000000602082015250565b60006158ae602783613c72565b91506158b982615852565b604082019050919050565b600060208201905081810360008301526158dd816158a1565b9050919050565b60006158ef826138e7565b91506158fa836138e7565b9250828202615908816138e7565b9150828204841483151761591f5761591e614b4c565b5b5092915050565b7f4e487b7100000000000000000000000000000000000000000000000000000000600052601260045260246000fd5b6000615960826138e7565b915061596b836138e7565b92508261597b5761597a615926565b5b828204905092915050565b7f436865636b706f696e743a20696e76616c6964206b6579000000000000000000600082015250565b60006159bc601783613c72565b91506159c782615986565b602082019050919050565b600060208201905081810360008301526159eb816159af565b9050919050565b600081905092915050565b7f1901000000000000000000000000000000000000000000000000000000000000600082015250565b6000615a336002836159f2565b9150615a3e826159fd565b600282019050919050565b6000819050919050565b615a64615a5f82613b26565b615a49565b82525050565b6000615a7582615a26565b9150615a818285615a53565b602082019150615a918284615a53565b6020820191508190509392505050565b6000608082019050615ab66000830187614135565b615ac36020830186614955565b615ad06040830185614135565b615add6060830184614135565b95945050505050565b7f45434453413a20696e76616c6964207369676e61747572650000000000000000600082015250565b6000615b1c601883613c72565b9150615b2782615ae6565b602082019050919050565b60006020820190508181036000830152615b4b81615b0f565b9050919050565b7f45434453413a20696e76616c6964207369676e6174757265206c656e67746800600082015250565b6000615b88601f83613c72565b9150615b9382615b52565b602082019050919050565b60006020820190508181036000830152615bb781615b7b565b9050919050565b7f45434453413a20696e76616c6964207369676e6174757265202773272076616c60008201527f7565000000000000000000000000000000000000000000000000000000000000602082015250565b6000615c1a602283613c72565b9150615c2582615bbe565b604082019050919050565b60006020820190508181036000830152615c4981615c0d565b9050919050565b7f476f7665726e6f72566f74696e6753696d706c653a20766f746520616c72656160008201527f6479206361737400000000000000000000000000000000000000000000000000602082015250565b6000615cac602783613c72565b9150615cb782615c50565b604082019050919050565b60006020820190508181036000830152615cdb81615c9f565b9050919050565b6000615ced826138e7565b9150615cf8836138e7565b9250828201905080821115615d1057615d0f614b4c565b5b92915050565b7f476f7665726e6f72566f74696e6753696d706c653a20696e76616c696420766160008201527f6c756520666f7220656e756d20566f7465547970650000000000000000000000602082015250565b6000615d72603583613c72565b9150615d7d82615d16565b604082019050919050565b60006020820190508181036000830152615da181615d65565b9050919050565b6000615db382614d86565b615dbd818561490c565b9350615dcd818560208601613c83565b80840191505092915050565b6000615de58284615da8565b915081905092915050565b7f53616665436173743a2076616c756520646f65736e27742066697420696e203660008201527f3420626974730000000000000000000000000000000000000000000000000000602082015250565b6000615e4c602683613c72565b9150615e5782615df0565b604082019050919050565b60006020820190508181036000830152615e7b81615e3f565b9050919050565b600060a082019050615e976000830188614135565b615ea46020830187614135565b615eb16040830186614135565b615ebe60608301856138f1565b615ecb60808301846155eb565b969550505050505056fe476f7665726e6f723a2072656c617920726576657274656420776974686f7574206d657373616765476f7665726e6f723a2063616c6c20726576657274656420776974686f7574206d657373616765a26469706673582212204f58266e4aca15af218e176b267c010fe36ca2c940e685f93e9b626c4985c50464736f6c63430008110033",
  "linkReferences": {},
  "deployedLinkReferences": {}
}